:020000040800F2
:10000000604000209D010008F94E0008073F0008ED
:10001000F54E000845190008495600080000000088
:1000200000000000000000000000000005010008C2
:10003000AF1900080000000049010008254F000822
:10004000B7010008B7010008B7010008B7010008B0
:10005000B7010008B7010008B7010008B7010008A0
:10006000B7010008B7010008B7010008B701000890
:10007000B7010008B7010008B7010008B701000880
:10008000B7010008B7010008B7010008B701000870
:10009000B7010008B7010008B7010008B701000860
:1000A000B7010008B7010008B7010008B701000850
:1000B000B7010008A14F0008B7010008B701000808
:1000C000B7010008B7010008B7010008B701000830
:1000D000B7010008B701000805560008B70100087D
:1000E000B7010008B7010008B7010008DFF810D019
:1000F00000F02EFC00480047856A0008AFF300803E
:1001000060400020224B19680868B0E8F00F80F3C7
:100110000988BFF36F8F4FF0000080F311884EF015
:100120000D0E70470000000006480068006880F36C
:10013000088862B661B6BFF34F8FBFF36F8F00DFE1
:1001400000BF00BF08ED00E0EFF30980BFF36F8F41
:100150000F4B1A6820E9F00F106008B54FF05000FF
:1001600080F31188BFF34F8FBFF36F8F07F00EFE40
:100170004FF0000080F31188BDE808401968086856
:10018000B0E8F00F80F30988BFF36F8F704700BFAE
:10019000C0000020EFF3058070470000064880474C
:1001A00006480047FEE7FEE7FEE7FEE7FEE7FEE75C
:1001B000FEE7FEE7FEE7FEE79F4F0008ED000008C0
:1001C000202A04DB203A21FA02F00021704721FAAC
:1001D00002F3D040C2F12002914008431946704713
:1001E00040EA01039B0703D009E008C9121F08C0B9
:1001F000042AFAD203E011F8013B00F8013B521E39
:10020000F9D27047D2B201E000F8012B491EFBD2AF
:1002100070470022F6E710B513460A460446194611
:10022000FFF7F0FF204610BD421C10F8011B00290B
:10023000FBD1801A70470022CBB20178994200D1DD
:100240000246401C0029F8D110467047F0B480EAFD
:100250000102D40F4200B2EB410F02D2024608461F
:1002600011464A0042D0C30DDDB2C1F3C752AD1AE8
:10027000202D35DAC1F3160141F4000204B15242D7
:10028000C5F1200602FA06F12A411044B3EBD05F13
:1002900023D0C4B1012DA0EBC35009DCF0BC4FF05A
:1002A000004202EAC352DBB200F5000000F0C4BA1B
:1002B000400000F1807000EBC350A0F1807040EA74
:1002C000D170490009E0490841EAC071A0EBC35070
:1002D00000F50000400800EBC350F0BC00F0A3BAEA
:1002E0006142012202EB4101001BF6E7F0BC7047BE
:1002F00081F00041AAE780F00040A7E780EA010210
:1003000010B502F00043400022D04A001FD0010E79
:1003100001EB1261C0F35600C2F3560240F4000034
:1003200042F40002A0FB022000047F39140400D034
:10033000401C50EA124001D44000491EC2B20C06D3
:1003400004EBD010401C4008802A02D003E00020BB
:1003500010BD20F00100002900DA0020184310BD74
:1003600030B480EA010202F0004530F0004221F092
:10037000004013D090B1C30DD40DC2F31601C0F3E9
:100380001600E41A41F4000140F400027D34914269
:1003900001D3641C00E04900002C02DA30BC0020CC
:1003A00070474FF400000023914201D3891A0343A0
:1003B00040084FEA4101F7D151B1914202D14FF0CB
:1003C000004105E002D24FF0010101E06FF00101B0
:1003D00003EBC450284430BC00F025BA2DE9FE4F91
:1003E000804681EA0300C00F0C46009021F00041D6
:1003F00023F00045B8EB0200A94105D24046214652
:1004000090461C460B46024623F00040104347D05E
:10041000270DC7F30A00C3F30A510290401A019056
:1004200040286BDAC3F3130040F4801B0098924617
:1004300020B10023D2EB030A63EB0B0B0198594662
:10044000C0F14002504600F0CDF906460D46504638
:100450005946019A00F0D5F910EB080061410024DB
:1004600087EA115284EAE7731A4340D0009A62B3D4
:10047000019A012A4FEA075215DC001B61EB0201C9
:100480004FF0004202EA0752CDE90042001C41F55C
:10049000801132462B4600F00CFA03B0BDE8F08F15
:1004A00040462146F9E7001B61EB0201001C41F5C3
:1004B000801300185B412018A2F5001747EB0301D9
:1004C00040EAD570B6196D4111E06D084FEA360665
:1004D00045EAC0754FEA0752001B61EB0201001CA0
:1004E00041F5801149084FEA300000195141324668
:1004F0002B4603B0BDE8F04F00F0CCB900980122C4
:1005000040000023D0EB020263EBE0730098214629
:100510004FEAE074B8EB000061EB0401E9E783F017
:1005200000435BE781F0004158E72DE9FE4F81EA87
:10053000030404F0004421F0004100944FF0000B4C
:1005400023F0004350EA01045ED052EA03045BD07A
:10055000C3F30A54C1F30A552C44A4F2F3340194B2
:10056000A0FB0254C1F3130141F48011C3F3130340
:1005700043F4801301FB024400FB034E840A970AF4
:1005800044EA815447EA8357A4FB076802958D0A21
:1005900005FB07854FEA932C04FB0C542705029DAD
:1005A0004FEA065847EA1637B5EB08056EEB070C1D
:1005B000870E920E47EA811742EA8312A7FB0201D7
:1005C000B6EB0B0164EB00042B0D43EA0C335E1811
:1005D00044EB1C50DA465146E7FB0201C5F3130415
:1005E0004FEA0B3343EA14534FEA0432019C43EAC7
:1005F0000603A4F10C040294009CCDE900B400F0C1
:1006000058F903B0BDE8F08F00200146F9E72DE965
:10061000F04D81EA030404F0004B21F0004514463C
:100620004FF0000A23F0004150EA050220D054EABE
:1006300001021DD0C5F30A570246C5F31303C1F3E7
:100640001300C1F30A5640F4801543F48013A7EB5E
:100650000608101BD64608F2FD3873EB050002D3DE
:1006600008F1010801E092185B41B8F1000F03DACC
:1006700000200146BDE8F08D00204FF480110646B1
:1006800084460EE0171B73EB050705D3121B63EBC3
:10069000050306434CEA010C49084FEA3000921862
:1006A0005B4150EA0107EDD152EA030012D082EA21
:1006B000040083EA0501084305D0101BAB4106D2B4
:1006C0000122002306E000224FF0004302E06FF019
:1006D000010253101AEB06004CEB085110EB0A0014
:1006E00041EB0B01BDE8F04D00F0D4B8C10F80EA3A
:1006F000E0700844CA079623002100F09DB800F07E
:10070000004220F00040C10DC0F3160040F400008C
:100710007F2901DA00207047962903DCC1F1960198
:10072000C84001E096398840002AF4D04042704722
:1007300000F0004230F000400AD0C10D01F56071B8
:10074000C0F3160042EA0151C20840071143704746
:1007500000200146704701F0004330B421F0004111
:1007600050EA010206D00A0DA2F56072C1F313012E
:10077000002A02DC30BC00207047440F44EAC10468
:10078000C100E01830BC00EBC25000F04CB80000D3
:10079000002801DBC0F10040002901DBC1F100416C
:1007A00081427047002801DBC0F10040002901DBD5
:1007B000C1F100418842704730B50B460146002028
:1007C0002022012409E021FA02F59D4205D303FA13
:1007D00002F5491B04FA02F52844151EA2F1010294
:1007E000F1DC30BD202A04DB203A00FA02F10020BF
:1007F00070479140C2F1200320FA03F3194390405F
:100800007047202A06DBCB17203A41FA02F043EA70
:10081000E07306E041FA02F3D040C2F120029140B9
:100820000843194670470029A8BF7047401C49007B
:1008300008BF20F00100704710B4B0FA80FC00FA45
:100840000CF050EA010404BF10BC704749B1CCF170
:10085000200421FA04F411FA0CF118BF01212143FC
:100860000843A3EB0C01CB1D4FEA00614FEA1020B7
:1008700042BF002010BC704700EBC3501044002959
:10088000A4BF10BC7047401C490008BF20F0010005
:1008900010BC704710B5141E73F1000408DA401C38
:1008A00041F1000192185B411A4301D120F001008F
:1008B00010BD2DE9F04D92469B4611B1B1FA81F27F
:1008C00002E0B0FA80F220329046FFF78BFF044638
:1008D0000F4640EA0A0041EA0B0153465A460843D4
:1008E00013D0114653EA010019D0C8F14002504616
:1008F000FFF766FC05460E46504659464246FFF74E
:1009000071FF084305D0012004E020463946BDE8C8
:10091000F08D0020054346EAE0762C4337430A98E1
:100920006305E40AA0EB08000022FD0A44EA4754EC
:100930000A3002D500200146E9E701051019694196
:10094000DDE9084500196941BDE8F04DA2E7000066
:10095000064C074D06E0E06840F0010394E807000C
:1009600098471034AC42F6D3FFF7C4FBDCA4000870
:10097000FCA4000870B58C1810F8015B15F0070393
:1009800001D110F8013B2A1106D110F8012B03E028
:1009900010F8016B01F8016B5B1EF9D12B0705D430
:1009A0000023521E0DD401F8013BFAE710F8013B79
:1009B000CB1A921C03E013F8015B01F8015B521E95
:1009C000F9D5A142D8D3002070BD38B503F018FE88
:1009D00003240BE00120E2B2E11E09070090080E9B
:1009E0001023002103F054FF601C84B2072CF1DBBC
:1009F00038BD00001CB55F48007840B901201023C5
:100A00005DA219460090002003F0E8FF07E00120F6
:100A100010235AA219460090002003F0DFFF0120A6
:100A2000102357A219460090082003F0D7FF57481B
:100A3000B0F90000002813DB012010234FA2194653
:100A40000090482003F0CAFF012010210523CDE9C2
:100A500000104E48B0F90020502003F079FF13E059
:100A6000012010234AA219460090482003F0B6FF47
:100A7000012010210523CDE900104448B0F9000001
:100A80004242502003F064FF3A48007840B9012008
:100A9000102339A220210090002003F09FFF07E0DF
:100AA0000120102335A220210090002003F096FFA2
:100AB0000120102337A220210090082003F08EFF90
:100AC0003748B0F90000002814DB012010232BA2C6
:100AD00020210090482003F081FF012010210523F0
:100AE000CDE900102E48B0F900202021502003F05D
:100AF0002FFF14E00120102325A220210090482080
:100B000003F06CFF012010210523CDE900102448DB
:100B1000B0F9000042422021502003F019FF15488F
:100B20000078012807D1102313A230210090002063
:100B300003F054FF07E00120102310A230210090A1
:100B4000002003F04BFF0120102316A2302100905B
:100B5000082003F043FF012010210323CDE90010FA
:100B6000134802783021602003F0F2FE03F0CCFD40
:100B70001CBD00005D0000202A00000020000000D5
:100B8000646573697265643A0000000058000020D3
:100B90002D0000006D6573757265203A000000003D
:100BA0005A0000206D6F646275735F69643A0000DB
:100BB0005C00002008B500200090694603F08EFF1D
:100BC0009DF8000020B901200549087000F00AF8DE
:100BD0009DF80000012802D1014903F07FFF08BD04
:100BE0005C00002010B501242146002003F088FF9E
:100BF00002480178012003F083FF10BD5C00002053
:100C0000F8B503F055FF044644B1012C7DD0022C09
:100C10007CD0032C40F0918300F003BB2F21FDA07A
:100C2000FFF709FB28B12F21FAA0FFF704FB401CB6
:100C300000E0F8A006465C21FFF7FDFA88B12F21FD
:100C4000F4A0FFF7F8FA28B12F21F2A0FFF7F3FA8A
:100C5000401C00E0EFA006465C21FFF7ECFA401CC8
:100C60000BE02F21EBA0FFF7E6FA28B12F21E9A036
:100C7000FFF7E1FA401C00E0E6A005460B222946FA
:100C8000ECA004F0E3FCF148007800285CD1F048C7
:100C900000880A3000B2EE4908800846B0F900002A
:100CA00010F58C7F01DAEB480BE0E948B0F9000061
:100CB000B0F58C7F02DD4FF48C7002E0E448B0F9AF
:100CC0000000E34908800846008800F5FA70E24910
:100CD00088802F21CFA0FFF7AEFA28B12F21CDA019
:100CE000FFF7A9FA401C00E0CAA006465C21FFF706
:100CF000A2FA98B12F21C7A0FFF79DFA38B12F2192
:100D0000C4A0FFF798FA401C02E077E064E1C1A0BC
:100D100006465C21FFF78FFA401C0BE02F21BDA097
:100D2000FFF789FA28B12F21BAA0FFF784FA401CF7
:100D300000E0B8A00546C648B0F9003014222946A4
:100D4000C6A004F083FC58E0C0480078012854D1C4
:100D5000C8480078401CC749087008460078012838
:100D600001DA012007E0C34800780A2801DD0A20E3
:100D700001E0C0480078BF49087000200223024605
:100D800001460090BC48006807F0CCFA2F21A1A0D2
:100D9000FFF751FA28B12F219EA0FFF74CFA401C13
:100DA00000E09CA006465C21FFF745FA88B12F21A0
:100DB00098A0FFF740FA28B12F2196A0FFF73BFA41
:100DC000401C00E093A006465C21FFF734FA401C6B
:100DD0000BE02F218FA0FFF72EFA28B12F218DA035
:100DE000FFF729FA401C00E08AA00546A1480378D5
:100DF0001E222946A1A004F029FC9EE22F2185A0F5
:100E0000FFF719FA28B12F2182A0FFF714FA401C2E
:100E100000E080A006465C21FFF70DFA88B12F2183
:100E20007CA0FFF708FA28B12F217AA0FFF703FA78
:100E3000401C00E077A006465C21FFF7FCF9401C4F
:100E40000BE02F2173A0FFF7F6F928B12F2171A035
:100E5000FFF7F1F9401C00E06EA00546222229466A
:100E60008BA004F0F3FB7948007800285AD1784829
:100E700000880A3800B2764908800846B0F90000B8
:100E800010F58C7F01DA73480BE07148B0F900006F
:100E9000B0F58C7F02DD4FF48C7002E06C48B0F945
:100EA00000006B4908800846008800F5FA706A491E
:100EB00088802F2157A0FFF7BEF928B12F2155A018
:100EC000FFF7B9F9401C00E052A006465C21FFF78D
:100ED000B2F988B12F214FA0FFF7ADF928B12F212A
:100EE0004CA0FFF7A8F9401C00E04AA006465C2190
:100EF000FFF7A1F9401C0BE02F2146A0FFF79BF95B
:100F000028B12F2143A0FFF796F9401C00E041A033
:100F100005464F48B0F900302B2229464FA004F077
:100F200095FB58E049480078012854D15148007891
:100F3000401E5049087008460078012801DA012057
:100F400007E04C4800780A2801DD0A2001E0494802
:100F500000784849087000200223024601460090AC
:100F60004548006807F0DEF92F212AA0FFF763F952
:100F700028B12F2127A0FFF75EF9401C00E025A033
:100F800006465C21FFF757F988B12F2121A0FFF712
:100F900052F928B12F211FA0FFF74DF9401C00E0A6
:100FA0001CA006465C21FFF746F9401C0BE02F21F0
:100FB00018A0FFF740F928B12F2116A0FFF73BF941
:100FC000401C00E013A005462A4803783522294634
:100FD0002AA004F03BFBB0E12F210EA0FFF72BF974
:100FE00028B12F210BA0FFF726F9401C00E009A033
:100FF00006465C21FFF71FF950B12F2105A0FFF72E
:101000001AF930B12F2103A0FFF715F9401C4DE06C
:1010100052E049E02E2E5C446576656C6F706D651C
:101020006E745C4170705C4170705F4B65792E63CB
:10103000000000005B25733A25645D4B4559312063
:10104000B1BBB0B4CFC22E2E2E0A00005D0000202E
:1010500058000020E8FEFFFF383C00205B25733A73
:1010600025645DB5B1C7B0CBD9B6C83A2025640AAE
:10107000000000005C0000201C0000205B25733A8B
:1010800025645DB5B1C7B049443A2025640A000023
:101090005B25733A25645D4B45593220B1BBB0B432
:1010A000CFC22E2E2E0A0000AFF2980006465C2119
:1010B000FFF7C1F8401C0EE02F21AFF2A800FFF7A8
:1010C000BAF830B12F21AFF2B400FFF7B4F8401CEA
:1010D00001E0AFF2C00005463922294698A004F08D
:1010E000B5FA9D48007800284AD19C4908800846F6
:1010F000008800F5FA709A4988802F21AFF2EC0041
:10110000FFF799F830B12F21AFF2F800FFF793F80D
:10111000401C01E0AFF2041006465C21FFF78BF89B
:10112000A0B12F21AFF21410FFF785F830B12F21B5
:10113000AFF22010FFF77FF8401C01E0AFF22C1057
:1011400006465C21FFF777F8401C0EE02F21AFF236
:101150003C10FFF770F830B12F21AFF24810FFF7C5
:101160006AF8401C01E0AFF2541005467B48B0F924
:10117000003041222946AFF21C1004F067FA4FE01C
:101180007548007801284BD1764908700020022369
:101190000246014600907448006807F0C3F82F210A
:1011A000AFF29010FFF747F830B12F21AFF29C104B
:1011B000FFF741F8401C01E0AFF2A81006465C21A1
:1011C000FFF739F8A0B12F21AFF2B810FFF733F8CD
:1011D00030B12F21AFF2C410FFF72DF8401C01E011
:1011E000AFF2D01006465C21FFF725F8401C0EE058
:1011F0002F21AFF2E010FFF71EF830B12F21AFF230
:10120000EC10FFF718F8401C01E0AFF2F8100546AB
:10121000544803784A222946AFF2A01004F016FA87
:101220008BE02F21AFF21420FFF705F830B12F210A
:10123000AFF22020FEF7FFFF401C01E0AFF22C20B0
:1012400006465C21FEF7F7FFA0B12F21AFF23C204C
:10125000FEF7F1FF30B12F21AFF24820FEF7EBFF90
:10126000401C01E0AFF2542006465C21FEF7E3FF8C
:10127000401C0EE02F21AFF26420FEF7DCFF30B1FE
:101280002F21AFF27020FEF7D6FF401C01E0AFF235
:101290007C2005464E22294634A004F0D7F92E487A
:1012A000007808B9012000E000202B4908702F21A8
:1012B000AFF2A020FEF7BFFF30B12F21AFF2AC207C
:1012C000FEF7B9FF401C01E0AFF2B82006465C21F2
:1012D000FEF7B1FFA0B12F21AFF2C820FEF7ABFFA0
:1012E00030B12F21AFF2D420FEF7A5FF401C01E062
:1012F000AFF2E02006465C21FEF79DFF401C0EE0A9
:101300002F21AFF2F020FEF796FF30B12F21AFF280
:10131000FC20FEF790FF401C01E0AFF208300546CC
:101320000D48007808B917A000E019A00346522222
:10133000294619A004F08AF900BF00BFF8BD0000DB
:101340005B25733A25645D4B45593320B1BBB0B47E
:10135000CFC22E2E2E0A00005D0000205800002073
:10136000383C00205C0000201C0000205B25733A04
:1013700025645D4B45593420B1BBB0B4CFC22E2E8D
:101380002E0A0000B5E7BBFAC4A3CABD00000000E6
:101390004944C4A3CABD00005B25733A25645DB50A
:1013A000B1C7B0B0B4BCFCC4A3CABD3A2025730A0F
:1013B0000000000010B504F069FF10BD08B5002062
:1013C0004FF4E1330246009003480178002004F016
:1013D000BBFE04F015FC08BD5C00002070B5484859
:1013E000807801283FD14748007800283BD103F09E
:1013F000BBFB2F2144A0FEF71EFF28B12F2142A0E6
:10140000FEF719FF401C00E03FA005465C21FEF7F7
:1014100012FF002811D02F213BA0FEF70CFF28B1AE
:101420002F2139A0FEF707FF401C00E036A005463B
:101430005C21FEF700FF401C0BE02F2132A0FEF7DD
:10144000FAFE28B12F2130A0FEF7F5FE401C00E087
:101450002DA004467B22214633A004F0F7F801209A
:101460002849087041E02648807800283DD1254869
:101470000078012839D103F085FB2F2122A0FEF747
:10148000DAFE28B12F2120A0FEF7D5FE401C00E097
:101490001DA005465C21FEF7CEFE88B12F211AA0C3
:1014A000FEF7C9FE28B12F2117A0FEF7C4FE401C8D
:1014B00000E015A005465C21FEF7BDFE401C0BE0D8
:1014C0002F2111A0FEF7B7FE28B12F210EA0FEF7A5
:1014D000B2FE401C00E00CA004468622214619A062
:1014E00004F0B4F80020074908701D48808830B126
:1014F0001B488088A0F5FA7000B21A49088070BDB8
:101500004C3C0020280000202E2E5C446576656C43
:101510006F706D656E745C4170705C4170705F4D92
:101520006F746F722E6300005B25733A25645D0A49
:101530006D6F6462757320C6F4B6AFB5E7BBFA2E63
:101540002E2E0A005B25733A25645D0A6D6F646276
:10155000757320B9D8B1D5B5E7BBFA2E2E2E0A0087
:10156000383C00205800002008480068006800F05F
:101570001000102804D1002005498870401E7047D3
:1015800001200349887000BFF9E70000C80200206D
:10159000563C00202DE9F04F85B082462F48006868
:1015A000406A2F490880084600882E490988401A59
:1015B00000B204902A4800882A4908800498FFF75E
:1015C00095F851460090FEF7CBFE4FF08141019017
:1015D000FEF7C6FE24490290FEF7C2FE0390FFF715
:1015E000A7F80646214A224BFFF711F88046002251
:1015F000204BFEF79AFF0446FFF7ADF883465846A6
:10160000FFF796F804461C4A1C4BFEF78EFF064671
:101610000F461B480068FFF78BF80446164A194B23
:10162000FEF783FF32463B46CDE90201FEF7D6FEC8
:101630008046FFF790F883461148C0F800B0006874
:10164000FFF75DF800B2104908800846008800F5F1
:10165000FA700E49888005B0BDE8F08FC8020020FE
:1016600052000020500000200000304121B072687C
:10167000916D354000004E409A9999999999C93FCA
:10168000540000209999E93F5A000020243C002092
:1016900010B503F055FA3C21014801F01BFF10BDC5
:1016A000C802002070B504462548008860B9254866
:1016B0000078012808D103F065FA0020214908705C
:1016C00021498861C86170BD1D48008838B11D4836
:1016D000007820B903F048FA01201A490870184828
:1016E000B0F90000FFF702F8174908612046FFF73C
:1016F00051FF1648B0F90000FEF7F8FF12494861A3
:101700000846C46000F020F90F48056A10492846D1
:10171000FFF73EF801D20E4807E00E492846FFF7D2
:1017200041F801D20B4800E0284605462846FEF75E
:10173000E6FF06B2304603F00FFA00BFC3E7000031
:1017400058000020280000202C0000205A00002013
:101750000000F5C30000F5437CB52F2157A0FEF72C
:101760006AFD28B12F2155A0FEF765FD401C00E061
:1017700052A006465C21FEF75EFD002811D02F2105
:101780004EA0FEF758FD28B12F214CA0FEF753FDC7
:10179000401C00E049A006465C21FEF74CFD401CC1
:1017A0000BE02F2145A0FEF746FD28B12F2143A0D5
:1017B000FEF741FD401C00E040A005463F222946BF
:1017C00046A003F043FF4C480E2100238022CDE9C0
:1017D00000104AA14C4806F037FD0446012C35D1D3
:1017E0002F2136A0FEF727FD28B12F2133A0FEF7C9
:1017F00022FD401C00E031A006465C21FEF71BFDE7
:1018000088B12F212DA0FEF716FD28B12F212BA086
:10181000FEF711FD401C00E028A006465C21FEF703
:101820000AFD401C0BE02F2124A0FEF704FD28B187
:101830002F2122A0FEF7FFFC401C00E01FA0054660
:101840004C22294631A003F001FF34E02F211BA0D8
:10185000FEF7F1FC28B12F2118A0FEF7ECFC401C8C
:1018600000E016A006465C21FEF7E5FC88B12F21BA
:1018700012A0FEF7E0FC28B12F2110A0FEF7DBFC40
:10188000401C00E00DA006465C21FEF7D4FC401C85
:101890000BE02F2109A0FEF7CEFC28B12F2107A0D5
:1018A000FEF7C9FC401C00E004A005465022294672
:1018B0001DA003F0CBFE06F02BFA7CBD2E2E5C445F
:1018C0006576656C6F706D656E745C4170705C41BF
:1018D00070705F5461736B2E630000005B25733A78
:1018E00025645DB5E7BBFABFD8D6C6CFEEC4BF2E20
:1018F0002E2E2E0A0000000010000020737461726A
:10190000745F7461736B0000497200085B25733A61
:1019100025645DC6F4B6AFC8CECEF1B4B4BDA8B3ED
:10192000C9B9A62E2E2E0A005B25733A25645DC622
:10193000F4B6AFC8CECEF1B4B4BDA8CAA7B0DC2E01
:101940002E2E0A0000BFFEE72DE9F0470446D4E939
:101950000401FEF7CDFC05462946A069FEF776FC9A
:10196000A0612846E169FEF7C3FC8146A168FEF745
:10197000C5FC8046E168FEF7F3FC0646A169606895
:10198000FEF7BCFC8246E168FEF7B8FC80462946BB
:101990002068FEF7B3FC81464146FEF757FC074638
:1019A0003146FEF753FC2062E561BDE8F0877047E1
:1019B00072B600BFFEE70146002291F8210002281E
:1019C00008D00420886300BF002081F8200000BFF9
:1019D000012070470868006820F00E000B6818604E
:1019E0000868006820F001000B68186091F840302A
:1019F00001209840CB6B5860012081F8210000BF86
:101A0000002081F8200000BF1046E2E770B50446D0
:101A1000002594F82100022803D00420A0630125AA
:101A200048E02068006820F00E0021680860206807
:101A3000006820F00100216808601F492068884282
:101A400001D1012026E01C4914312068884201D1CF
:101A500010201FE0184928312068884201D18015E4
:101A600018E015493C312068884201D1801411E00A
:101A7000114950312068884202D14FF4803009E08A
:101A80000D4964312068884202D14FF4801001E092
:101A90004FF08070084908394860012084F821001F
:101AA00000BF002084F8200000BF606B10B120460A
:101AB000616B8847284670BD0800024070B5044637
:101AC00000F0AEF906462546681C10B104480078BF
:101AD000054400BF00F0A4F9801BA842FAD370BDF2
:101AE000080000202DE9F8470346002294466EE1E5
:101AF0004FF0010808FA02F4D1F8008008EA040067
:101B0000A0427DD1DFF8DCA2D1F80480A8EB0A095D
:101B1000D0453AD014DCB8F1030F50D009DCB8F14D
:101B2000000F31D0B8F1010F1CD0B8F1020F49D12C
:101B300020E0B8F1110F18D0B8F1120F42D11EE019
:101B4000B9F5881F25D006DCB9F5803F20D0B9F55E
:101B5000801F37D11AE0B9F5001F18D0B9F5041F5E
:101B600030D117E0D1F80CC02DE0D1F80C8008F18D
:101B7000040C28E0D1F80C8008F1080C23E0D1F81F
:101B80000C8008F10C0C1EE000BF00BF00BF00BFBE
:101B900000BF00BFD1F80880B8F1000F02D14FF0AC
:101BA000040C0BE0D1F80880B8F1010F03D14FF01D
:101BB000080C1C6102E04FF0080C5C6103E04FF080
:101BC000000C00E000BF00BFFF2801D8984601E0EC
:101BD00003F104084646FF2802D84FEA820803E0D2
:101BE000A2F108084FEA88084746D6F800804FF06F
:101BF0000F0909FA07F928EA09080CFA07F900E0C1
:101C000088E048EA0908C6F80080D1F8048008F0A6
:101C10008058B8F1805F7DD100BFDFF8CC81D8F863
:101C2000188048F00108DFF8C091C9F81880C8464C
:101C3000D8F8188008F00108CDF8008000BF00BF78
:101C40004FEAB9384FEA920958F829504FEA82789A
:101C50004FEA18794FF00F0808FA09F825EA080545
:101C6000DFF88881434502D14FF0000816E0DFF825
:101C70008081434502D14FF001080FE0DFF8748105
:101C8000434502D14FF0020808E0DFF86C8143457C
:101C900002D14FF0030801E04FF004084FEA8279C7
:101CA0004FEA197908FA09F848EA0505DFF84C8186
:101CB0004FEA920948F82950D1F8048008F48018B6
:101CC000B8F5801F0AD1DFF83881D8F8008048EADB
:101CD0000008DFF82C91C9F8008009E0DFF82081C6
:101CE000D8F8008028EA0008DFF81491C9F80080CD
:101CF000D1F8048008F40018B8F5001F10D1DFF8FF
:101D0000008108F10408D8F8008048EA0008DFF8EC
:101D1000F09000E05AE009F10409C9F800800DE0F4
:101D2000DFF8DC8008F10408D8F8008028EA000811
:101D3000DFF8CC9009F10409C9F80080D1F80480DB
:101D400008F40038B8F5003F0ED1DFF8B480A8F1F0
:101D50000408D8F8008048EA0008DFF8A490A9F148
:101D60000409C9F800800DE0DFF89480A8F10408A8
:101D7000D8F8008028EA0008DFF88490A9F1040967
:101D8000C9F80080D1F8048008F48038B8F5803FA5
:101D90000ED1DFF86C80A8F10808D8F8008048EA76
:101DA0000008DFF85C90A9F10809C9F800800DE08F
:101DB000DFF84C80A8F10808D8F8008028EA00086D
:101DC000DFF83C90A9F10809C9F80080521CD1F84D
:101DD000008028FA02F8B8F1000F7FF489AEBDE860
:101DE000F8870000000011100010024000080140B8
:101DF000000C0140001001400014014008000140A7
:101E000008040140024693680B400BB1012000E03A
:101E1000002070470AB1016101E00B0403617047C3
:101E2000014800687047000000000020014691F85A
:101E30003D00704770B504460CB9012070BD94F8A0
:101E40003D0028B9002084F83C00204600F0FEFB4D
:101E5000242084F83D002068006820F001002168FB
:101E600008602068006840F400402168086020682D
:101E7000006820F400402168086000F0C1FD0546BC
:101E80005C496068884206D85B48854201D20120DF
:101E900007E0002005E05948854201D2012000E01A
:101EA0000020012800D1C9E75548B5FBF0F62068AD
:101EB000406820F03F003043216848604D49606829
:101EC000884201D8701C07E04FF4967070434FF4BD
:101ED0007A71B0FBF1F0401C2168096A21F03F01E2
:101EE00008432168086243496068884214D8681E24
:101EF00061684900B0FBF1F0401CC0F30B000428FE
:101F000001D204203DE0681E61684900B0FBF1F099
:101F1000401CC0F30B0034E0A06838B9681E61684B
:101F200001EB4101B0FBF1F0401C0AE0681E616862
:101F300001EBC10202EB0111B0FBF1F0401C40F4D7
:101F40008040C0F30B0008B901201AE0A06848B92E
:101F5000681E616801EB4101B0FBF1F0401CC0F369
:101F60000B000CE0681E616801EBC10202EB01117D
:101F7000B0FBF1F0401CC0F30B0040F4804040F493
:101F800000402168C9694CF6FF72914308432168FB
:101F9000C861D4E9070108432168096821F0C0013C
:101FA000084321680860D4E9031008432168896860
:101FB00048F2FF329143084321688860D4E9050163
:101FC00008432168C96821F0FF0108432168C860FF
:101FD0002068006840F0010021680860002020644B
:101FE000202084F83D000020206384F83E0000BFDC
:101FF00024E70000A086010080841E0000093D0047
:1020000040420F002DE9F8430446894616461F4614
:10201000DDF82080FFF704FF054694F83D002028F6
:102020007ED11923012251492046009502F03FF943
:1020300010B10220BDE8F88300BF94F83C000128ED
:1020400001D10220F6E7012084F83C0000BF20689F
:10205000006800F0010028B92068006840F0010025
:10206000216808602068006820F40060216808602A
:10207000212084F83D00102084F83E0000202064D8
:1020800066626785608D20853948E0622B4642464E
:102090004946204601F058FF08B10120CAE700BFB9
:1020A00000200090206840690090206880690090BE
:1020B00000BF00BF44E02A464146204602F018FA1D
:1020C00050B1206C042805D12068006840F40070ED
:1020D000216808600120ADE7606A00782168086126
:1020E000606A401C6062608D401E6085208D401ECD
:1020F000208520684069C0F3800070B1208D60B1F8
:10210000606A007821680861606A401C6062608DC6
:10211000401E6085208D401E20852A46414600E0F5
:1021200022E0204602F090F850B1206C042805D13E
:102130002068006840F4007021680860012079E799
:10214000208D0028B7D12068006840F40070216815
:102150000860202084F83D00002084F83E0000BF85
:1021600084F83C0000BF65E7022063E7020010002E
:102170000000FFFF2DE9FE4F04460F4690469946AA
:10218000DDE90CAB0E9E00200290FFF749FE0546EC
:1021900094F83D00202872D119230122CE4920460F
:1021A000009502F084F810B10220BDE8FE8F00BF58
:1021B00094F83C00012801D10220F6E7012084F8C0
:1021C0003C0000BF2068006800F0010028B92068CA
:1021D000006840F00100216808602068006820F471
:1021E000006021680860222084F83D00402084F8C7
:1021F0003E0000202064C4F824A0A4F82AB0608D1A
:102200002085B648E0624B46424639462046CDE935
:10221000006501F0F9FE08B10120C6E7208D88B9FC
:1022200000BF00200190206840690190206880690B
:10223000019000BF00BF2068006840F40070216872
:1022400008604BE0208D01281AD12068006820F436
:1022500080602168086072B600BF0020019020688D
:102260004069019020688069019000BF00BF20682C
:10227000006840F400702168086062B62EE029E131
:10228000208D022819D12068006840F40060216880
:10229000086072B600BF002001902068406901907C
:1022A00020688069019000BF00BF2068006820F4AA
:1022B00080602168086062B610E02068006840F421
:1022C00080602168086000BF00200190206840699C
:1022D000019020688069019000BF00BFEBE0208D75
:1022E00003287DD8208D012815D12A463146204665
:1022F00002F0B9F808B1012057E720680069616A67
:102300000870606A401C6062208D401E2085608DD0
:10231000401E6085CFE0208D02282CD1334600225C
:102320006F492046009501F0C2FF08B101203CE74B
:1023300072B62068006840F4007021680860206868
:102340000069616A0870606A401C6062208D401EEE
:102350002085608D401E608562B620680069616AD4
:102360000870606A401C6062208D401E2085608D70
:10237000401E60859FE03346002259492046009563
:1023800001F095FF08B101200FE72068006820F4F4
:1023900080602168086072B620680069616A087010
:1023A000606A401C6062208D401E2085608D401E4A
:1023B00060854C4800681921B0FBF1F04FF47A7148
:1023C000B0FBF1F0C0EBC00000EB8000029000BF5A
:1023D0000298401E02900298A8B90020206300E0F5
:1023E00039E0202084F83D00002084F83E00206C75
:1023F00040F02000206462B600BF002084F83C005A
:1024000000BF0120D1E620684069C0F380000028A9
:10241000DED02068006840F4007021680860206801
:102420000069616A0870606A401C6062208D401E0D
:102430002085608D401E608562B620680069616AF3
:102440000870606A401C6062208D401E2085608D8F
:10245000401E60852FE02A463146204602F003F8F0
:1024600008B10120A1E620680069616A0870606A0D
:10247000401C6062208D401E2085608D401E60855E
:1024800020684069C0F38000A8B1208D032805D1E1
:102490002068006820F48060216808602068006976
:1024A000616A0870606A401C6062208D401E208551
:1024B000608D401E6085208D00287FF410AF2020A5
:1024C00084F83D00002084F83E0000BF84F83C0002
:1024D00000BF6AE6022068E6020010000000FFFF6D
:1024E000040001000C0000202DE9FC5F04460F46AB
:1024F00090469946DDE90CAB0E9EFFF791FC054630
:1025000094F83D0020287DD1192301224D49204611
:10251000009501F0CCFE10B10220BDE8FC9F00BF89
:1025200094F83C00012801D10220F6E7012084F84C
:102530003C0000BF2068006800F0010028B9206856
:10254000006840F00100216808602068006820F4FD
:10255000006021680860212084F83D00402084F854
:102560003E0000202064C4F824A0A4F82AB0608DA6
:1025700020853548E0624B46424639462046CDE943
:10258000006501F0F1FD08B10120C6E731E02A46FF
:102590003146204601F0ACFF50B1206C042805D133
:1025A0002068006840F40070216808600120B4E7EA
:1025B000606A007821680861606A401C6062208D52
:1025C000401E2085608D401E608520684069C0F3F4
:1025D000800070B1208D60B1606A00782168086168
:1025E000606A401C6062208D401E2085608D401E08
:1025F0006085208D0028CAD12A463146204601F048
:1026000023FE00E01CE050B1206C042805D12068B6
:10261000006840F400702168086001207DE72068B0
:10262000006840F4007021680860202084F83D00B4
:10263000002084F83E0000BF84F83C0000BF6CE737
:1026400002206AE7020010000000FFFF10B586B00C
:1026500004460020029003900490059016492068DB
:10266000884226D100BF1548806940F00800134910
:1026700088610846806900F00800019000BF00BF33
:102680004FF440600290122003900320059002A9AD
:102690000B48FFF727FA00BF0848C06940F48000E4
:1026A0000649C8610846C06900F48000019000BF77
:1026B00000BF06B010BD00000058004000100240EE
:1026C000000C0140034800680349097808440149A7
:1026D00008607047000000200800002010B508487E
:1026E000006840F0100006490860032000F0A8F8D8
:1026F0000F2000F007F800F02BF8002010BD0000BC
:102700000020024070B504460E4800784FF47A71FC
:10271000B1FBF0F00C490968B1FBF0F5284600F078
:10272000F9FB08B1012070BD102C07D20022214610
:10273000501E00F047F80548046001E00120F2E770
:102740000020F0E7080000200C000020040000201A
:1027500008B500BF1148806940F001000F49886149
:102760000846806900F00100009000BF00BF00BF74
:102770000846C06940F08050C8610846C06900F052
:102780008050009000BF00BF00BF0549486820F09E
:10279000E06040F00070486000BF08BD00100240DB
:1027A0000000014001460846002809DB00F01F0335
:1027B00001229A4043099B0003F1E023C3F8002162
:1027C00000BF70472DE9F05F80460D461646002792
:1027D00002F04CFF074639462A46334601F007000F
:1027E000C0F1070ABAF1040F02D94FF0040A01E060
:1027F000C0F1070AD14600F1040ABAF1070F02D26C
:102800004FF0000A01E0A0F1030AD4464FF0010A9C
:102810000AFA09FAAAF1010A0AEA020A0AFA0CFA01
:102820004FF0010B0BFA0CFBABF1010B0BEA030BA6
:102830004AEA0B042146404602F020FFBDE8F09F23
:1028400000BF00F00702064B19684FF6FF0319405E
:10285000044B0B4343EA0221014B196000BF704750
:102860000CED00E00000FA0570B504460D460CB909
:10287000012070BD5A48006800F00700A8420ED23F
:102880005748006820F0070028435549086008466B
:10289000006800F00700A84201D00120E9E7207895
:1028A00000F0020002281DD1207800F00400042866
:1028B00005D14C48406840F4E0604A4948602078BF
:1028C00000F00800082805D14648406840F46050F0
:1028D000444948604348406820F0F000A16808433C
:1028E00040494860207800F0010078B36068012812
:1028F00006D13C48006800F4003090B90120B8E7E8
:102900006068022806D13748006800F0007040B9BE
:102910000120AEE73348006800F0020008B901204A
:10292000A7E73048406820F00300616808432D495C
:102930004860FFF775FA064609E0FFF771FA801B59
:1029400041F28831884202D9032092E707E0254806
:10295000406800F00C006168B0EB810FEDD12048B9
:10296000006800F00700A8420ED91D48006820F05A
:10297000070028431A4908600846006800F007006D
:10298000A84201D0012074E7207800F00400042858
:1029900007D11448406820F4E060E1680843114919
:1029A0004860207800F00800082808D10D484068E9
:1029B00020F46050216940EAC1000A49486000F0F3
:1029C0003FF808494968C1F30311074A515CC84000
:1029D0000649086006480068FFF794FE002048E7B3
:1029E00000200240001002409A8700080C000020DE
:1029F0000400002001480068704700000C0000201F
:102A000000B5FFF7F7FF04494968C1F30221034A03
:102A1000515CC84000BD000000100240AA870008B9
:102A200000B5FFF7E7FF04494968C1F3C221034A33
:102A3000515CC84000BD000000100240AA87000899
:102A400070B500210022002400230020134D696886
:102A500001F00C05F5B1042D02D0082D19D101E0CB
:102A60000F4819E00F4DC1F38346AB5D01F480358B
:102A700055B10A4D6D68C5F340450B4E725D084D6A
:102A80005D43B5FBF2F402E0084D03FB05F420467C
:102A900002E000BF024800BF00BF70BD001002404E
:102AA00000127A00888700089887000800093D0016
:102AB000F8B504460CB90120F8BD207800F00100FB
:102AC000002878D0F848406800F00C0004280CD0AA
:102AD000F548406800F00C00082811D1F248406821
:102AE00000F48030B0F5803F0AD1EF48006800F470
:102AF000003000285FD0606800285CD10120DBE74F
:102B000000BF6068B0F5803F06D1E748006840F438
:102B10008030E549086028E0606858B9E2480068FC
:102B200020F48030E04908600846006820F48020E6
:102B300008601AE06068B0F5A02F0BD1DA48006891
:102B400040F48020D84908600846006840F480308E
:102B500008600AE0D448006820F48030D249086058
:102B60000846006820F48020086000BF606888B1D3
:102B7000FFF756F9054606E0FFF752F9401B6428B7
:102B800001D9032098E7C848006800F40030002805
:102B9000F2D010E0FFF744F9054606E0FFF740F9F0
:102BA000401B642801D9032086E7BF48006800F471
:102BB00000300028F2D1207800F00200022857D11E
:102BC000B948406800F00C0050B1B748406800F0C8
:102BD0000C00082818D1B448406800F4803098B937
:102BE000B148006800F0020020B12069012801D03E
:102BF000012061E7AC48006820F0F800616940EA14
:102C0000C100A949086033E02069E8B10120A74963
:102C10000860FFF705F9054606E0FFF701F9401BDC
:102C2000022801D9032047E79F48006800F002000E
:102C30000028F2D09C48006820F0F800616940EA62
:102C4000C1009949086013E0002098490860FFF727
:102C5000E7F8054606E0FFF7E3F8401B022801D934
:102C6000032029E79048006800F002000028F2D114
:102C7000207800F0080008282DD1A069B8B1012003
:102C80008B490860FFF7CCF8054606E0FFF7C8F867
:102C9000401B022801D903200EE78348406A00F058
:102CA00002000028F2D0012002F028F913E00020F1
:102CB0007F490860FFF7B4F8054606E0FFF7B0F873
:102CC000401B022801D90320F6E67748406A00F04D
:102CD00002000028F2D1207800F00400042873D10B
:102CE00000277148C06900F0805070B900BF6E487D
:102CF000C06940F080506C49C8610846C06900F066
:102D00008050009000BF00BF01276A48006800F4AF
:102D10008070B0B96748006840F480706549086009
:102D2000FFF77EF8054606E0FFF77AF8401B6428B7
:102D300001D90320C0E65F48006800F480700028D5
:102D4000F2D000BFE068012806D15748006A40F081
:102D500001005549086227E0E06858B95248006A06
:102D600020F00100504908620846006A20F0040083
:102D7000086219E0E06805280BD14B48006A40F072
:102D80000400494908620846006A40F001000862F0
:102D90000AE04548006A20F00100434908620846FD
:102DA000006A20F00400086200BFE068A0B1FFF7ED
:102DB00037F8054609E0FFF733F8401B41F2883148
:102DC000884202D9032077E622E03748006A00F003
:102DD00002000028EFD012E0FFF722F8054608E0D5
:102DE000FFF71EF8401B41F28831884201D90320C9
:102DF00062E62D48006A00F002000028F0D1012FA1
:102E000005D12948C06920F080502749C86100BF1A
:102E1000E069C8B32448406800F00C00082860D07E
:102E2000E069022848D1002020490866FEF7F8FF33
:102E3000054606E0FEF7F4FF401B022801D90320F7
:102E40003AE61948006800F000700028F2D1206AC4
:102E5000B0F5803F07D11448406820F40030A168E5
:102E6000084311494860D4E9080108430E494968FC
:102E700021F4741108430C49486001200B4908668D
:102E8000FEF7CEFF054607E03DE0FEF7C9FF401B19
:102E9000022801D903200FE60348006800F0007003
:102EA0000028F2D02FE00000001002400000424253
:102EB0008004424200700040002014490866FEF77A
:102EC000AFFF054606E0FEF7ABFF401B022801D925
:102ED0000320F1E50E48006800F000700028F2D1F0
:102EE00011E0E069012800D1E6E50948466806F4EA
:102EF0008031206A814204D106F47011606A8142F7
:102F000001D00120D8E50020D6E5000000004242B3
:102F10000010024070B504462546681EB0F1807F5F
:102F200001D301200FE0681E4FF0E02148610F211E
:102F30004FF0FF3002F0A2FB00204FF0E02188614B
:102F400007200861002070BD7047704710B5034628
:102F5000002200BF93F83C00012801D1022010BDDF
:102F6000012083F83C0000BF22F0FF00CC6840EA5B
:102F7000040222F440708C6840EA040222F480606B
:102F80004C6840EA040222F400600C6840EA040243
:102F900022F480500C6940EA040222F400504C698B
:102FA00040EA040222F48040CC6940EA0402186836
:102FB000426400BF002083F83C0000BF00BFCEE7A2
:102FC00030B502460B4600BF92F83C00012801D103
:102FD000022030BD012082F83C0000BF022082F8B0
:102FE0003D00106844681068816824F07004186817
:102FF000044310684460104D1068A8420BD010685C
:10300000B0F1804F07D00D4D1068A84203D00C4D91
:103010001068A84205D121F080015868014310686A
:103020008160012082F83D0000BF002082F83C0052
:1030300000BF00BFCDE70000002C014000040040AD
:103040000008004070B504460D4615B994F84200DA
:103050000BE0042D02D14320005D06E0082D02D1D3
:103060004420005D01E04520005D012801D00120E1
:1030700070BD1DB9022084F842000EE0042D03D17A
:1030800002214320015508E0082D03D102214420EC
:10309000015502E0022145200155042229462068FD
:1030A00001F0E5FF2068406C40F40040216848646E
:1030B0001249206888420BD02068B0F1804F07D0B9
:1030C0000F492068884203D00E49206888420CD1FD
:1030D0002068806800F00706062E0CD02068006883
:1030E00040F001002168086005E02068006840F0B9
:1030F0000100216808600020BAE70000002C0140B0
:10310000000400400008004010B504460CB901203E
:1031100010BD94F83D0028B9002084F83C002046FA
:1031200000F026F8022084F83D00211D206801F0FF
:103130004BFF012084F8460000BF84F83E000121C7
:103140003F200155402001554120015500BF00BFDF
:10315000012084F8420043200155442001554520B8
:10316000015500BF012084F83D000020D0E7000099
:1031700038B504461649206888420DD100BF15486D
:10318000806940F40060134988610846806900F452
:103190000060009000BF19E00F492068884215D1F7
:1031A00000BF0C48C06940F002000A49C8610846E7
:1031B000C06900F00200009000BF00BF002211466D
:1031C0001D20FFF7FFFA1D20FFF7ECFA38BD0000C5
:1031D000002C01400010024000040040014691F81C
:1031E0003D00012801D001207047022081F83D00F8
:1031F0000868C06840F001000B68D860124B08688E
:1032000098420BD00868B0F1804F07D00F4B086888
:10321000984203D00E4B086898420CD10868806829
:1032200000F00702062A0CD00868006840F0010090
:103230000B68186005E00868006840F001000B6842
:1032400018600020D0E70000002C0140000400407E
:103250000008004001460868C06820F001000A68C4
:10326000D06000BF0868006A41F21112104050B9E6
:103270000868006A9210104028B90868006820F0B9
:1032800001000A68106000BF012081F83D000020A5
:1032900070472DE9F04104460D46002700BF94F821
:1032A0003C00012802D10220BDE8F081012084F811
:1032B0003C0000BF022084F83D002068866826F0AC
:1032C000770626F47F46206886602868502833D029
:1032D0000CDC202850D004DC00284BD0102851D121
:1032E00049E0302849D040284CD139E060282DD021
:1032F000702807D0B0F5805F03D0B0F5005F41D1F2
:103300000DE041E0D5E902136A68206801F0C0FED3
:103310002068866846F077062068866034E0D5E944
:1033200002136A68206801F0B3FE2068806840F4E8
:1033300080402168886027E0EA686968206801F0B9
:1033400077FF5021206801F0AEFE1DE0EA68696851
:10335000206801F080FF6021206801F0A4FE13E0E6
:10336000EA686968206801F063FF4021206801F085
:103370009AFE09E000BF00BF00BF2968206801F085
:1033800092FE01E0012700BF00BF012084F83D004C
:1033900000BF002084F83C0000BF384684E72DE9D8
:1033A000F04104460D4614B90120BDE8F08194F8BF
:1033B0003D0028B9002084F83C00204600F052F877
:1033C000022084F83D002068806844F207018843A9
:1033D00021688860211D206801F0F6FD2068D0F882
:1033E0000880206886692068076A286840EA08081B
:1033F00040F203308643A969A86840EA01200643E9
:1034000040F60C4086434FF2F0008643E969E868D5
:1034100040EA0120064328690001296A40EA013098
:10342000064327F022076969686840EA01100743EC
:103430002068C0F808802068866120680762012043
:1034400084F8460084F83E0001213F200155012008
:1034500084F8420043200155012084F83D000020FB
:10346000A3E7000010B586B0044600200290039048
:103470000490059014492068884223D100BF134866
:10348000C06940F004001149C8610846C06900F0F5
:103490000400019000BF00BF00BF0846806940F0F3
:1034A000080088610846806900F00800019000BFAC
:1034B00000BFC020029000200390049002A904489D
:1034C000FEF710FB06B010BD0008004000100240DF
:1034D000000C01402DE9F04304460D4694F83E608F
:1034E0003F20075D94F84280432010F804906DB9A6
:1034F000012E02D1B8F1010F02D00120BDE8F08306
:10350000022084F83E0084F8420025E0042D0CD10E
:10351000012F02D1B9F1010F01D00120EEE7022104
:103520003F2001554320015516E0012E07D1012F00
:1035300005D1B8F1010F02D1B9F1010F01D001207D
:10354000DCE7022084F83E0002213F2001550220E2
:1035500084F842004320015515B1042D0CD105E03B
:1035600001220021206801F071FD10E001220421F8
:10357000206801F06BFD0AE001220021206801F0C3
:1035800065FD01220421206801F060FD00BF00BF3D
:103590002068006840F00100216808600020ADE765
:1035A000704770B504462068C5682068066906F053
:1035B0000200022819D105F00200022815D1401F8F
:1035C00021680861012020772068806900F00300ED
:1035D00018B12046FFF7E4FF05E0204600F0DEF8D2
:1035E000204600F092F90020207706F0040004281D
:1035F00019D105F00400042815D1C04321680861E1
:10360000022020772068806900F4407018B12046BD
:10361000FFF7C6FF05E0204600F0C0F8204600F0A6
:1036200074F90020207706F00800082819D105F069
:103630000800082815D1C0432168086104202077BC
:103640002068C06900F0030018B12046FFF7A8FF0A
:1036500005E0204600F0A2F8204600F056F90020D0
:10366000207706F01000102819D105F0100010285E
:1036700015D1C04321680861082020772068C069FF
:1036800000F4407018B12046FFF78AFF05E020469D
:1036900000F084F8204600F038F90020207706F08A
:1036A000010048B105F0010030B16FF00100216860
:1036B0000861204600F094F906F08000802809D1C6
:1036C00005F08000802805D1C043216808612046AC
:1036D000FFF73AFC06F04000402809D105F0400011
:1036E000402805D1C04321680861204600F079F9DF
:1036F00006F02000202809D105F02000202805D15F
:10370000C043216808612046FFF71FFC70BD000020
:1037100010B586B0044600200290039004900590F6
:103720001A49206888422ED100BF1948806940F0AC
:103730000800174988610846806900F00800019078
:1037400000BF00BF00BF0846806940F004008861E8
:103750000846806900F00400019000BF00BF4FF4EC
:103760000050029002200390059002A90948FEF73C
:10377000B9F94FF48070029002200390059002A9DD
:103780000548FEF7AFF906B010BD0000002C01405F
:1037900000100240000C01400008014070472DE974
:1037A000F04104460D461646002700BF94F83C0041
:1037B000012802D10220BDE8F081012084F83C00FC
:1037C00000BF36B1042E1BD0082E31D00C2E5ED196
:1037D00045E02946206801F06FFC2068806940F0D0
:1037E0000800216888612068806920F00400216851
:1037F000886120688069296908432168886148E0F8
:103800002946206801F088FC2068806940F4006047
:10381000216888612068806920F48060216888615F
:1038200020688069296940EA01202168886130E0C8
:103830002946206801F0A4FC2068C06940F0080017
:103840002168C8612068C06920F004002168C8614F
:103850002068C069296908432168C86119E02946C0
:10386000206801F0C1FC2068C06940F40060216854
:10387000C8612068C06920F480602168C861206840
:10388000C069296940EA01202168C86101E0012777
:1038900000BF00BF00BF002084F83C0000BF3846D6
:1038A00089E710B504460CB9012010BD94F83D001D
:1038B00028B9002084F83C00204600F025F80220BA
:1038C00084F83D00211D206801F07EFB012084F872
:1038D000460000BF84F83E0001213F2001554020F2
:1038E00001554120015500BF00BF012084F842006E
:1038F00043200155442001554520015500BF0120BA
:1039000084F83D000020D0E77047704770B504464A
:103910000D4615B994F83E000BE0042D02D13F206E
:10392000005D06E0082D02D14020005D01E041204D
:10393000005D012801D0012070BD1DB9022084F86E
:103940003E000EE0042D03D102213F20015508E086
:10395000082D03D102214020015502E0022141201F
:10396000015501222946206801F070FB19492068A1
:10397000884201D1012000E0002028B12068406C7D
:1039800040F40040216848641249206888420BD006
:103990002068B0F1804F07D00F492068884203D0DB
:1039A0000E49206888420CD12068806800F0070624
:1039B000062E0CD02068006840F0010021680860E5
:1039C00005E02068006840F00100216808600020E0
:1039D000B2E70000002C0140000400400008004055
:1039E00070477047704770472DE9F84F04462068CC
:1039F00005682068C668206847694FF00009CA4614
:103A000005F00F09B9F1000F0AD105F0200038B117
:103A100006F0200020B1204601F081FCBDE8F88FBF
:103A2000B9F1000F7BD007F0010018B906F49070CF
:103A3000002874D005F0010030B106F4807018B190
:103A4000606C40F00100606405F0040030B107F0E4
:103A5000010018B1606C40F00200606405F00200E3
:103A600030B107F0010018B1606C40F004006064F0
:103A700005F0080048B106F0200010B907F0010079
:103A800018B1606C40F008006064606C002845D09C
:103A900005F0200028B106F0200010B1204601F00A
:103AA0003EFC20684069C0F3801A606C00F008009A
:103AB00010B9BAF1000F2CD0204601F0EAFB2068C3
:103AC000406900F0400000B300BF00BF216814311E
:103AD00051E8001F21F040002168143141E8000244
:103AE000002AF3D100BFE06B50B17748E16B486327
:103AF000E06BFDF78BFF88B1E06B416B88470DE011
:103B00002046FFF770FF09E009E02046FFF76BFF52
:103B100004E02046FFF767FF002060647EE7206B2B
:103B2000012877D105F01000002873D006F01000AE
:103B30000028FAD000BF00200090206800680090A4
:103B400020684068009000BF00BF2068406900F016
:103B5000400000285FD0E06B006840681FFA80F8E2
:103B6000B8F1000F55D0A08D404552DDA4F82E804D
:103B7000E06B8069202843D000BF00BF21680C3172
:103B800051E8001F21F4807021680C3141E80002E7
:103B9000002AF3D100BF00BF00BF2168143151E8F3
:103BA000001F21F001002168143141E80002002AC1
:103BB000F3D100BF00BF00BF2168143151E8001FDE
:103BC00021F040002168143141E80002002AF3D1BD
:103BD00000BF202084F842000020206300BF00BF07
:103BE00021680C3151E8001F21F0100021680C31D0
:103BF00041E80002002AF3D100BFE06BFDF7DBFED5
:103C000002206063A08DE28D801A81B22046FFF70A
:103C1000E9FE03E742E0A08DE18D401A1FFA80F82B
:103C2000E08DD0B3B8F1000F37D000BF00BF2168DE
:103C30000C3151E8001F21F4907021680C3141E8EB
:103C40000002002AF3D100BF00BF00BF2168143179
:103C500051E8001F21F001002168143141E8000201
:103C6000002AF3D100BF202084F842000020206306
:103C700000BF00BF21680C3151E8001F21F0100087
:103C800021680C3141E80002002AF3D100BF022074
:103C9000606341462046FFF7A5FEBFE605F08000C1
:103CA00030B106F0800018B1204601F035FCB5E6D1
:103CB00005F0400030B106F0400018B1204601F098
:103CC0001EFBABE600BFA9E67F52000810B5044614
:103CD0000CB9012010BDA06900B100E000BF94F84C
:103CE000410028B9002084F84000204600F02AF85E
:103CF000242084F841002068C06820F40050216826
:103D0000C860204601F08AFB2068006920F49040DA
:103D1000216808612068406920F02A002168486114
:103D20002068C06840F400502168C86000206064CA
:103D3000202084F8410084F842000020606300BF26
:103D4000C8E7000010B586B004460020029003903A
:103D5000049005903749206888422FD100BF36482B
:103D6000806940F48040344988610846806900F4E5
:103D70008040019000BF00BF00BF0846806940F04E
:103D8000040088610846806900F00400019000BFCB
:103D900000BF48150290022003900320059002A95D
:103DA0002648FDF79FFE4FF48060029000200390AC
:103DB000049002A92148FDF795FE39E020492068CA
:103DC000884235D100BF1C48C06940F400301A4910
:103DD000C8610846C06900F40030019000BF00BF10
:103DE00000BF0846806940F0040088610846806989
:103DF00000F00400019000BF00BF042002900220E8
:103E000003900320059002A90C48FDF76BFE0820E3
:103E1000029000200390049002A90848FDF762FE7A
:103E2000002211462620FEF7CDFC2620FEF7BAFC24
:103E300006B010BD003801400010024000080140EB
:103E40000044004070472DE9F84F04460E461746DF
:103E500099464FF0000A94F84100202850D106B14D
:103E600017B90120BDE8F88F00206064212084F894
:103E70004100FDF7D5FF8246A784E784A068B0F52E
:103E8000805F04D1206910B90025B04602E03546B4
:103E90004FF000081EE05346002280212046CDF856
:103EA000009001F069FB20B1202084F8410003203C
:103EB000D8E745B9B8F80000C0F3080021684860A9
:103EC00008F1020803E02878216848606D1CE08C46
:103ED000401EE084E08C0028DDD1534600224021C2
:103EE0002046CDF8009001F047FB20B1202084F857
:103EF00041000320B6E7202084F841000020B1E70C
:103F00000220AFE7704700BFFEE70146086840693E
:103F1000C0F38020B0B16FF480600A685061002067
:103F20000863202081F83D00002081F83E00086CE5
:103F300040F00400086400BF002081F83C0000BF8E
:103F4000012070470020FCE72DE9F84304460D46A8
:103F500017469846E66A082E04D0012E02D016F5C0
:103F6000803F06D12068006840F4807021680860B6
:103F700008E0206B122805D12068006840F48070AA
:103F8000216808603B4600224FF001112046CDF821
:103F9000008000F08CF960B12068006800F4807047
:103FA000B0F5807F02D14FF4007020640320BDE89B
:103FB000F8832069B0F5804F04D105F0FE00216838
:103FC000086112E005F44070F02141EAE010216838
:103FD000086143463A460B49204600F0C7F908B14C
:103FE0000120E4E7E8B22168086143463A46054902
:103FF000891F204600F0BAF908B10120D7E7002058
:10400000D5E70000080001002DE9F84304460F46FB
:1040100015469946DDE908862068006840F480600E
:10402000216808602068006840F48070216808609A
:10403000434600224FF001112046009600F037F968
:1040400060B12068006800F48070B0F5807F02D114
:104050004FF4007020640320BDE8F88307F0FE00F1
:1040600021680861334642463E49204600F07EF909
:1040700008B10120F0E700BF0020009020684069EF
:10408000009020688069009000BF00BF3246414622
:10409000204600F02DFA50B1206C042805D120688C
:1040A000006840F40070216808600120D4E7B9F18D
:1040B000010F03D1E8B22168086117E0C5F30720BA
:1040C0002168086132464146204600F011FA50B19D
:1040D000206C042805D12068006840F40070216835
:1040E00008600120B8E7E8B221680861324641461D
:1040F000204600F0FDF950B1206C042805D120685D
:10410000006840F40070216808600120A4E720687E
:10411000006840F4807021680860434600224FF038
:1041200001112046009600F0C2F858B120680068DE
:1041300000F48070B0F5807F02D14FF400702064ED
:10414000032089E7F8B240F0010021680861334696
:1041500042460449204600F009F908B101207BE7F6
:10416000002079E7020001002DE9F8430446884663
:1041700015469946DDE908672068006840F48070BC
:1041800021680860334600224FF001112046009755
:1041900000F08DF860B12068006800F48070B0F520
:1041A000807F02D14FF4007020640320BDE8F883C3
:1041B00008F0FE00216808613B463246214920464E
:1041C00000F0D4F808B10120F0E700BF0020009013
:1041D00020684069009020688069009000BF00BF9F
:1041E0003A463146204600F083F950B1206C04284D
:1041F00005D12068006840F4007021680860012043
:10420000D4E7B9F1010F03D1E8B22168086117E0E2
:10421000C5F30720216808613A463146204600F080
:1042200067F950B1206C042805D12068006840F47B
:104230000070216808600120B8E7E8B221680861D1
:104240000020B3E70200010070B504460D46164693
:1042500025E02046FFF759FE08B1012070BD681C1B
:10426000E8B1FDF7DDFD801BA84200D8BDB920688C
:104270004069C0F3800090B900202063202084F8BA
:104280003D00002084F83E00206C40F020002064B7
:1042900000BF002084F83C0000BF0120DEE720685A
:1042A0004069C0F380000028D3D00020D6E72DE974
:1042B000F04104460D4617461E46DDF8188038E0EA
:1042C000701CA8B3FDF7ACFDA0EB0800B04200D80D
:1042D00076BBC5F3074001280AD120684069A9B21E
:1042E0000840A9B2884201D101200BE0002009E07A
:1042F00020688069A9B20840A9B2884201D1012092
:1043000000E00020B84214D100202063202084F86F
:104310003D00002084F83E00206C40F02000206426
:1043200000BF002084F83C0000BF0120BDE8F08100
:10433000FFE7C5F3074001280AD120684069A9B208
:104340000840A9B2884201D101200BE0002009E019
:1043500020688069A9B20840A9B2884201D1012031
:1043600000E00020B842ABD00020DFE72DE9F041AB
:1043700004460D4616461F4658E020684069C0F3C3
:104380008020E8B12068006840F40070216808606F
:104390006FF480602168486100202063202084F849
:1043A0003D00002084F83E00206C40F004002064B2
:1043B00000BF002084F83C0000BF0120BDE8F08170
:1043C000701C90B3FDF72CFDC01BB04200D866BB3B
:1043D000C5F3074001280AD120684069A9B2084006
:1043E000A9B2884201D101200BE0002009E0206839
:1043F0008069A9B20840A9B2884201D1012000E039
:10440000002090B900202063202084F83D00002087
:1044100084F83E00206C40F02000206400BF0020A3
:1044200084F83C0000BF0120C8E7FFE7C5F3074060
:1044300001280AD120684069A9B20840A9B288427F
:1044400001D101200BE0002009E020688069A9B2B9
:104450000840A9B2884201D1012000E000200028D4
:104460008BD00020AAE770B504460D46164637E00B
:1044700020684069C0F30010A0B16FF010002168FF
:10448000486100202063202084F83D00002084F84B
:104490003E00206C206400BF002084F83C0000BF78
:1044A000012070BDFDF7BCFC801BA84200D8BDB93F
:1044B00020684069C0F3801090B90020206320205C
:1044C00084F83D00002084F83E00206C40F020007D
:1044D000206400BF002084F83C0000BF0120E0E71A
:1044E00020684069C0F380100028C1D00020D8E7C0
:1044F00070B504460D46164625E02046FFF705FD3B
:1045000008B1012070BD681CE8B1FDF789FC801B73
:10451000A84200D8BDB920684069C0F3C01090B966
:1045200000202063202084F83D00002084F83E0015
:10453000206C40F02000206400BF002084F83C0084
:1045400000BF0120DEE720684069C0F3C0100028EA
:10455000D3D00020D6E7000070B500240CE0002581
:1045600006E00020074901EBC5010855681CC5B2EB
:10457000802DF6DB601CC4B2082CF0DB00F0C4F820
:1045800070BD0000A0030020F0B514460B46CF1705
:1045900001EB5777C7F3C702CF1701EB5777FF102F
:1045A000A1EBC707FEB20123B340DDB24CB1134B00
:1045B00003EBC0039B5C2B43104F07EBC007BB54BE
:1045C0001AE00E4B03EBC0039B5CDB430B4F07EB86
:1045D000C007BB54094B03EBC0039B5C2B43074F45
:1045E00007EBC007BB54054B03EBC0039B5CDB43ED
:1045F000024F07EBC007BB54F0BD0000A003002032
:1046000010B54FF44870FDF759FA0021AE2000F0C4
:104610000DFA0021084600F009FA0021102000F0F0
:1046200005FA0021402000F001FA0021812000F06D
:10463000FDF90021CF2000F0F9F90021A12000F0C0
:10464000F5F90021C82000F0F1F90021A62000F0C2
:10465000EDF90021A82000F0E9F900213F2000F049
:10466000E5F90021D32000F0E1F90021084600F02F
:10467000DDF90021D52000F0D9F90021802000F0DB
:10468000D5F90021D92000F0D1F90021F12000F066
:10469000CDF90021DA2000F0C9F90021122000F044
:1046A000C5F90021DB2000F0C1F90021402000F015
:1046B000BDF90021202000F0B9F90021022000F00E
:1046C000B5F900218D2000F0B1F90021142000F08F
:1046D000ADF90021A42000F0A9F90021A62000F0E6
:1046E000A5F9FFF739FF0021AF2000F09FF910BDB9
:1046F00010B50246012000E050430B1EA1F1010459
:10470000E1B2F9D110BD000070B500241CE004F145
:10471000B001C8B2002100F089F90021084600F07C
:1047200085F90021102000F081F9002508E00849F2
:1047300001EBC501085D012100F078F9681CC5B2E4
:10474000802DF4DB601CC4B2082CE0DB70BD0000DF
:10475000A00300202DE9FE4F0746884692461C46DE
:104760000197CDF80080082C02D14FF006091FE018
:104770002046E31704EB5373DB1021464FEAE47C39
:1047800004EB5C7C4FEAEC0CA4EBCC0CBCF1000F0E
:1047900002D04FF0010C01E04FF0000C63442246C0
:1047A00004EBD27C4FEA6C0C03FB0CF303F0FF0923
:1047B000AAF12000C6B200255EE0082C07D106EB66
:1047C00046002F4901EB400010F805B01DE00C2C0D
:1047D00007D106EB46002B4901EB800010F805B02D
:1047E00013E0102C05D1284800EB061010F805B096
:1047F0000BE0182C07D106EBC600244901EB800022
:1048000010F805B001E0BDE8FE8F002002901CE02A
:104810000BF0010028B1414638460C9AFFF7B4FE70
:1048200009E00C9808B9012000E00020024641464A
:104830003846FFF7A9FE4FEA6B0B08F1010000F0C4
:10484000FF080298401CC0B2029002980828DFDBE3
:10485000781CC7B2082C0BD004EBD4714A10019914
:10486000791A8A4204D1019F00980830C0B20090A2
:10487000DDF80080681CC5B24D459EDB00BFC2E775
:10488000B2870008DA8900084E8E00083E940008BE
:104890002DE9FC4F05460F4690461C46A946BA46F0
:1048A0002046E21704EB5272D2102146E31704EBC4
:1048B0005373DB10A4EBC3030BB1012300E000230F
:1048C0001A4462431FFA82FB00263AE0102C05D1FD
:1048D0001E4800EB4810805D009001E0BDE8FC8FB1
:1048E000002001901CE0009800F0010028B139463A
:1048F00028460B9AFFF748FE09E00B9808B90120FB
:1049000000E00020024639462846FFF73DFE0098A9
:1049100040100090781CC7B20198401CC0B20190B2
:1049200001980828DFDB681CC5B2A5EB0900A0428E
:1049300004D14D460AF1080000F0FF0A5746701CEA
:1049400086B25E45C2DB00BFC8E700009AA100083E
:104950002DE9FF4F82B0064691461F46DDE90F4A1A
:104960004FF0000B082C01D14FF0020B002530E076
:10497000781B401EC1B20A20FFF7BAFEB9FBF0F067
:104980000A21B0FBF1F201FB1208B8F1000F0ED1C1
:1049900004EBD4710BEB610101FB0561C8B2234646
:1049A0003022CDE900A40399FFF7D4FE0FE004EB19
:1049B000D4710BEB610101FB0561C8B208F1300154
:1049C000CAB22346CDE900A40399FFF7C3FE681CD1
:1049D000C5B2BD42CCDB06B0BDE8F08F2DE9F84F83
:1049E0000546884616461C46DDF828903046FBF7FB
:1049F0001BFC1FFA80FA002714E0CDF80090F25D4E
:104A0000234641462846FFF7A5FE082C02D1A81DE3
:104A1000C5B205E0204604EBD07105EB6101CDB2D3
:104A2000781C87B25745E8DBBDE8F88F7CB50446B3
:104A30000D460DB9002000E040208DF804008DF8EF
:104A400005406420022301AA782100900148FDF767
:104A5000D9FA7CBDE401002070B5044603F018FDCE
:104A60000646A1882068FDF7CDF90546A07920B15A
:104A7000012807D0022817D10FE015B90120A07135
:104A8000E66011E0012D01D10020A071E068301A2C
:104A90000A2801D90220A07106E0012D04D10020CE
:104AA000A07194F9080070BD00BF4FF0FF30FAE725
:104AB00070B500240BE0084901EB0410FFF7CCFFB0
:104AC0000546681C08B1284670BD601CC4B2042CA1
:104AD000F1DB4FF0FF30F7E7600000203EB5044601
:104AE0000D464FF47A700121A2B20B46CDE9005178
:104AF0000290A1210148FDF73DFB3EBDE4010020ED
:104B000013B584B0044602E0012003F07DF80B48A1
:104B1000FDF78CF92028F7D14FF47A70012105AA0E
:104B20000B46CDE9002102902246A0210348FDF763
:104B3000DBFC0A2003F068F806B010BDE401002099
:104B400010B500210348FEF7E1FE00210148FEF701
:104B500079FA10BD3802002000F5FA71014A126896
:104B6000516370473802002010B501200349887056
:104B7000002201030248FDF74DF910BD4C3C002016
:104B8000000C014010B500200449887004490880D9
:104B9000012211030348FDF73DF910BD4C3C0020F4
:104BA00058000020000C014000B585B000200190A5
:104BB00002900390049000BF2E48806940F01000DE
:104BC0002C4988610846806900F01000009000BF01
:104BD00000BF00BF0846806940F020008861084699
:104BE000806900F02000009000BF00BF00BF0846B1
:104BF000806940F0040088610846806900F0040084
:104C0000009000BF00BF00BF0846806940F0080068
:104C100088610846806900F00800009000BF00BF6E
:104C2000012289141448FDF7F5F84FF480500190E3
:104C300001200290002003900220049001A90E4858
:104C4000FCF750FF4FF4004001900020029001203B
:104C5000039001A90948FCF745FF38200190002086
:104C600002900120039001A90348FCF73BFF05B027
:104C700000BD000000100240000C0140000801408F
:104C800010B50B480B4908600B48486000210948E3
:104C90008160C1604FF48041016100214161816107
:104CA000C1610162FDF7C6F808B1FCF781FE10BDD5
:104CB00000580040E4010020801A060000B595B0BD
:104CC000002011901290139014900F9010901C21BE
:104CD00008A8FBF79EFA20216846FBF79AFA2D48B0
:104CE0002D4908600220486000212B48816040F275
:104CF000E731C1600021016141618161FEF704FA81
:104D000008B1FCF755FE4FF48050119011A92248CC
:104D1000FEF7BFFA08B1FCF74BFE1F48FEF7C1FDD6
:104D200008B1FCF745FE00200F9010900FA91A481B
:104D3000FEF746F908B1FCF73BFE602008904FF4FF
:104D4000FA70099000200A900B9004200C9000202B
:104D50000D900E90002208A90F48FEF720FD08B123
:104D6000FCF726FE00200090019002900390049032
:104D70004FF4005005900020079069460648FEF762
:104D8000E5F808B1FCF714FE0348FEF7C1FC15B0C6
:104D900000BD0000002C01403802002000B587B0A3
:104DA0000020039004900590069001900290144812
:104DB0001449086040F60F60486000211148816086
:104DC0002221C160002101618161FEF79DF908B1D6
:104DD000FCF7EEFD4FF48050039003A90948FEF75D
:104DE00058FA08B1FCF7E4FD00200190029001A9F7
:104DF0000448FEF7E5F808B1FCF7DAFD07B000BD9E
:104E0000000400408002002000B58BB0242102A8DD
:104E1000FBF7FFF90020009001901848184908603E
:104E2000002048600021164881604FF6FF71C16084
:104E30000021016181610320029000200390012084
:104E40000490002005900690079001200890002013
:104E500009900A9002A90A48FEF7A1FA08B1FCF7E6
:104E6000A7FD00200090019069460548FEF7A8F8CC
:104E700008B1FCF79DFD0BB000BD0000000800402C
:104E8000C802002010B50B480B4908604FF4E13010
:104E90004860002108488160C16001610C214161C6
:104EA00000218161C161FEF711FF08B1FCF780FDAF
:104EB00010BD0000003801401003002010B50B4861
:104EC0000B4908604FF4E1304860002108488160D8
:104ED000C16001610C21416100218161C161FEF766
:104EE000F5FE08B1FCF764FD10BD00000044004071
:104EF0005803002000BFFEE700BFFEE708B50849E1
:104F00000968C9084FF47A72B1FBF2F1414300918C
:104F100000BF00BF00994A1E00920029F9D108BDC8
:104F20000C00002010B5FDF7CDFB03F0A1FA01281D
:104F300001D003F06FF910BD00B58FB0282105A88E
:104F4000FBF767F914216846FBF763F90120059028
:104F500000040690002007900120099002200C9088
:104F6000C1030D914FF4E0110E9105A8FDF7A0FDCE
:104F700008B1FCF71DFD0F200090022001900020D9
:104F800002904FF480600390002004900221684654
:104F9000FDF76AFC08B1FCF70BFD0FB000BD7047D0
:104FA00010B508480068006900F0010030B16FF0EA
:104FB000010004490968086102F0AAF80148FEF7F7
:104FC000F0FA10BD8002002010B502681C4B984218
:104FD00008D0B0F1804F05D01A4B984202D01A4B3E
:104FE000984203D122F070024B681A43144B984246
:104FF00008D0B0F1804F05D0124B984202D0124B2E
:10500000984203D122F44072CB681A4322F0800305
:105010004C6943EA040202608B68C3620B688362D6
:10502000074B984201D10B69036301234361036974
:1050300003F001031BB1036923F00103036110BDF9
:10504000002C0140000400400008004030B501F091
:105050001F05012404FA05F3046A9C430462046AF0
:1050600001F01F0502FA05F52C43046230BD30B58E
:1050700001F00F05042404FA05F3046A9C4304625A
:10508000046A01F00F0502FA05F52C43046230BDF5
:1050900030B50C46816821F47F4142EA032525435F
:1050A0002943816030BD0A46816821F0700142F0D9
:1050B000070319438160704730B5026A056A25F01D
:1050C000010505624368846924F0700424F0030438
:1050D0000D682C4322F002028D682A430D4DA84230
:1050E00006D100BF22F00802CD682A4322F0040254
:1050F000084DA84207D123F4807323F400734D694F
:105100002B438D692B43436084614D684563026284
:1051100030BD0000002C014030B5026A056A25F060
:10512000100505624368846924F4E04424F4407463
:105130000D6844EA052422F020028D6842EA051237
:105140000E4DA84207D100BF22F08002CD6842EA8E
:10515000051222F04002094DA84209D123F48063D0
:1051600023F400634D6943EA85038D6943EA8503AF
:10517000436084614D688563026230BD002C01404C
:1051800030B5026A056A25F4807505624368C46912
:1051900024F0700424F003040D682C4322F4007200
:1051A0008D6842EA05220F4DA84207D100BF22F4C4
:1051B0000062CD6842EA052222F48062094DA842CD
:1051C00009D123F4805323F400534D6943EA0513B6
:1051D0008D6943EA05134360C4614D68C56302628B
:1051E00030BD0000002C014030B5036A056A25F48B
:1051F000805505624468C26922F4E04222F440729C
:105200000D6842EA052223F400538D6843EA053312
:10521000064DA84204D124F480444D6944EA851423
:105220004460C2614D680564036230BD002C0140DA
:1052300030B50B461446026A056A25F00105056281
:10524000816921F0F00141EA041122F00A021A43B7
:105250008161026230BD30B50B461446026A056AB0
:1052600025F010050562816921F4704141EA04319D
:1052700022F0A00242EA03128161026230BD70B5E1
:1052800005466C6A0020E085E0842046FEF7ABFB13
:1052900070BD00BF00BF02680C3252E8002F22F43C
:1052A000907102680C3242E80013002BF3D100BF6A
:1052B00000BF00BF0268143252E8002F22F0010143
:1052C0000268143242E80013002BF3D100BF016BD7
:1052D00001290ED100BF00BF02680C3252E8002F36
:1052E00022F0100102680C3242E80013002BF3D1C7
:1052F00000BF202180F8421000210163704710B5E3
:1053000004462068C06820F040002168C860202062
:1053100084F841002046FEF7F5FD002010BDF8B5E9
:10532000044694F84200222875D1A068B0F5805F49
:105330000CD1206950B90025A66A20684068C0F3E6
:1053400008003080A06A801CA06215E0A56A0026D3
:10535000A068B0F5805F03D0A06828B9206918B9AB
:1053600020684068287004E02068406800F07F00F2
:105370002870A06A401CA062E08D401E80B2E085CB
:10538000002846D12068C06820F020002168C8604D
:105390002068C06820F480702168C8602068406977
:1053A00020F0010021684861202084F8420000209C
:1053B0006063206B012826D10020206300BF00BF5E
:1053C00021680C3151E8001F21F0100021680C31D8
:1053D00041E80002002AF3D100BF2068006800F015
:1053E000100010280AD100BF00200090206800683B
:1053F000009020684068009000BF00BFA18D20464B
:10540000FEF7F0FA02E02046FEF71CFD0020F8BD92
:1054100001E00020FBE70220F9E7000070B5044638
:105420002168096921F44051E26811432268116141
:105430002269A1681143626941EA02052168C968CD
:1054400041F20C62914329432268D1602168496985
:1054500021F44071A2691143226851612D4A2168EB
:10546000914202D1FDF7DCFA01E0FDF7C9FA00EB49
:10547000C00101EB001162689200B1FBF2F100EB98
:10548000C00202EB001263689B00B2FBF3F26423DC
:10549000B2FBF3F202EBC20303EB0212A1EB8201B7
:1054A000322202EB01116422B1FBF2F101F0F001B2
:1054B00000EBC00202EB001263689B00B2FBF3F248
:1054C0006423B2FBF3F201EB021200EBC00101EB2B
:1054D000001163689B00B1FBF3F100EBC00303EB29
:1054E00000136668B600B3FBF6F36426B3FBF6F36D
:1054F00003EBC30606EB0313A1EB8301322303EB9B
:1055000001116423B1FBF3F101F00F011144226892
:10551000916070BD00380140014691F8410021289A
:1055200028D18868B0F5805F0BD1086948B90A6A4C
:105530001088C0F308000B685860086A801C086275
:1055400005E00B6A581C086218780B685860C88C14
:10555000401E80B2C88458B90868C06820F0800036
:105560000B68D8600868C06840F040000B68D860DD
:10557000002070470220FCE72DE9F84304460D4661
:1055800017469846089E31E0701C70B3FCF748FC43
:10559000A0EB0800B04200D816B90320BDE8F8839C
:1055A0002068C06800F00400F8B1802D1ED0402DA6
:1055B0001CD020680068C0F3C000B0B100BF00205C
:1055C000009020680068009020684068009000BF4C
:1055D00000BF2046FFF75DFE0820606400BF00208A
:1055E00084F8400000BF0120D8E7FFE7206800688A
:1055F0002840A84201D1012000E00020B842C3D0D9
:105600000020CBE710B50F4800680068C0F34010D9
:1056100030B16FF020000B490968086001F080FD8F
:10562000084800680068C0F3C01030B16FF0800017
:1056300004490968086001F07BFD0248FEF7D4F9CF
:1056400010BD00005803002000BFFEE70FB4054B5B
:1056500010B503A9044A029800F034F810BC5DF8B4
:1056600014FB0000A9690008E0010020024800685E
:10567000C0F30220704700000CED00E010B50028D8
:1056800004DB0A07130E054A135406E00A07140E3A
:10569000034A00F00F031B1FD45410BD00E400E0C8
:1056A00018ED00E002E008C8121F08C1002AFAD174
:1056B00070477047002001E001C1121F002AFBD192
:1056C000704700002DE9FF4F8BB088460546002645
:1056D00006E025280BD0DDE90D1290476D1C761CE5
:1056E00028780028F5D10FB03046BDE8F08F0024AF
:1056F000A146A2460122AE4900E0044315F8013F4D
:10570000203B02FA03F00842F7D128782A2810D06B
:105710006FF02F022878A0F13001092915D809EB84
:10572000890102EB410144F0020400EB01096D1C08
:10573000F0E758F8041B5FEA010903D544F400546C
:10574000C9F1000944F002046D1C28782E2817D1F5
:1057500015F8010F44F004042A280ED06FF02F0230
:105760002878A0F1300109290AD80AEB8A0102EB56
:10577000410100EB010A6D1CF2E758F804AB6D1C07
:1057800028786C280FD006DC4C2817D068280DD05C
:105790006A2814D104E0742810D07A280FD10DE0C3
:1057A00044F400140AE044F4801401E044F440148A
:1057B0006978814202D104F580146D1C6D1C287833
:1057C000692865D006DC00288DD0632827D064289E
:1057D00006D15DE06E2808D073282AD0752877D0CE
:1057E000DDE90D129047761CE0E0C4F30250022878
:1057F00009D003280DD0D8F8001004280DD00E6071
:1058000008F10408D2E0D8F80010F217C1E90062EC
:10581000F6E7D8F800100E80F2E70E70F0E718F8FF
:10582000041B8DF8001000208DF80100EB460120CC
:1058300003E058F804BB4FF0FF3061074FF000075A
:1058400001D40AE07F1C57450DDA8742FADB1BF8CA
:1058500007100029F6D106E07F1C8742FCDB1BF80D
:1058600007100029F8D1DDE90D23A9EB07008146D7
:10587000214600F0B1F83044C61904E0DDE90D120C
:105880001BF8010B90477F1EF8D22146484688E05E
:1058900058F8040BC4F302514FF00A0B032900D14E
:1058A00000B2042900D140B2002802DA40422D2182
:1058B00002E0210505D52B218DF82410012104E0FB
:1058C00006E0E10710D02021F6E708AF089113E0C9
:1058D00058F8040BC4F302514FF00A0B032900D10E
:1058E00080B2042900D1C0B20021EEE75946FAF790
:1058F00063FF303107F8011D0028F7D1ADEB070039
:1059000000F1200B600702D524F4803401E04FF051
:10591000010ADA4502DDAAEB0B0000E00020824616
:1059200000EB0B0108980144A9EB01000A90E00389
:1059300006D4DDE90D2321460A9800F04DF806440F
:105940004FF0000908E009A911F80900DDE90D127E
:10595000904709F10109761C08998945F3DBE003BA
:105960000CD5DDE90D2321460A9800F035F80644F0
:1059700004E0DDE90D1230209047761CBAF10001F9
:10598000AAF1010AF5DC05E0DDE90D1217F8010BBB
:105990009047761CBBF10001ABF1010BF4DC0A98D7
:1059A0002146DDE90D2300F005F806446D1C97E65D
:1059B000092801002DE9F041044600251E4617463E
:1059C000880404D405E039462020B0476D1C641ECD
:1059D000F9D52846BDE8F0812DE9F04104460025BF
:1059E0001E469046C80301D5302700E020278804D2
:1059F00004D505E041463846B0476D1C641EF9D514
:105A00002846BDE8F081000008B52F2120A0FAF754
:105A100012FC28B12F211EA0FAF70DFC401C00E05B
:105A20001BA005465C21FAF706FC002811D02F21A7
:105A300017A0FAF700FC28B12F2115A0FAF7FBFBFD
:105A4000401C00E012A005465C21FAF7F4FB401C64
:105A50000BE02F210EA0FAF7EEFB28B12F210CA0AE
:105A6000FAF7E9FB401C00E009A00446CA222146DF
:105A70000FA0FFF7EBFDFAF7A8FF02F009FD009079
:105A800005E0FAF7B7FF0A21684602F011FCF8E7D3
:105A90002E2E5C446576656C6F706D656E745C412E
:105AA00070705C4170705F5461736B2E6300000016
:105AB0005B25733A25645DCFD4CABEC8CECEF13A19
:105AC00020BFAACABCB5F7B6C80A00002DE9F0414C
:105AD00080460C4615461E4600270A200A490870D3
