:020000040800F2
:10000000484800209D0100081D490008AB2D00084C
:100010001949000829130008B14F0008000000002A
:1000200000000000000000000000000005010008C2
:10003000751300080000000049010008014B00088A
:10004000B7010008B7010008B7010008B7010008B0
:10005000B7010008B7010008B7010008B7010008A0
:10006000B7010008B7010008B7010008B701000890
:10007000B7010008B7010008B7010008B701000880
:10008000B7010008B7010008B7010008B701000870
:10009000B7010008B7010008B7010008B701000860
:1000A000B7010008B7010008B7010008B701000850
:1000B000B7010008B7010008B7010008B701000840
:1000C000B7010008B7010008B7010008B701000830
:1000D000B7010008B7010008A14F0008B7010008E8
:1000E000B7010008B7010008B7010008DFF810D019
:1000F00000F020FE00480047E5680008AFF30080EC
:1001000048480020224B19680868B0E8F00F80F3D7
:100110000988BFF36F8F4FF0000080F311884EF015
:100120000D0E70470000000006480068006880F36C
:10013000088862B661B6BFF34F8FBFF36F8F00DFE1
:1001400000BF00BF08ED00E0EFF30980BFF36F8F41
:100150000F4B1A6820E9F00F106008B54FF05000FF
:1001600080F31188BFF34F8FBFF36F8F08F0B0FF9C
:100170004FF0000080F31188BDE808401968086856
:10018000B0E8F00F80F30988BFF36F8F704700BFAE
:10019000B4000020EFF30580704700000648804758
:1001A00006480047FEE7FEE7FEE7FEE7FEE7FEE75C
:1001B000FEE7FEE7FEE7FEE77B4B0008ED000008E8
:1001C000202A04DB203A21FA02F00021704721FAAC
:1001D00002F3D040C2F12002914008431946704713
:1001E000A0F14101192900D82030704740EA0103ED
:1001F0009B0703D009E008C9121F08C0042AFAD2DD
:1002000003E011F8013B00F8013B521EF9D27047A0
:10021000D2B201E000F8012B491EFBD27047002248
:10022000F6E710B513460A4604461946FFF7F0FFF5
:10023000204610BD421C10F8011B0029FBD1801A7A
:10024000704710B5002200E0521C835C8C5CA34216
:1002500001D1002BF8D1D8B2E1B2401A10BD03464B
:1002600011F8012B00F8012B002AF9D1184670472C
:1002700030B505460020034600E05B1C934205D2E2
:10028000EC5CC85C201A01D1002CF6D130BD0022F4
:10029000CBB20178994200D10246401C0029F8D126
:1002A000104670470FB400B58DB010A909900B909F
:1002B00000914FF0FF300A9000200C900548069006
:1002C000054807906A4609A80F9900F0ABFB0DB0EE
:1002D0005DF814FB410A00085F0A00082DE9FF4F92
:1002E000087883B09946FF2805D0491C2D2804D0F2
:1002F0000024002008E000200BE00124F9E700EBD7
:10030000800003EB4000491C0B78FF2BF7D104B1B0
:10031000404200230293147819461D462D2C01D02B
:100320002B2C04D1521C2D2C13D000240294AA464D
:100330001478FF2C0FD00A25A3FB057801FB05815B
:100340004FF0000C03FB0C11521CE3194AEB0101A6
:10035000EEE70124EAE7814453EA010002D019F5EF
:10036000C87F06DA03980021C0E9001107B0BDE894
:10037000F08F0025AE4E2F46DFF8B882184600F009
:1003800099FCCDE90001B9F1000002DAC9F10004DD
:1003900000E004460023A74A1AEB030B42EB045A81
:1003A00012E0E00707D02A4633463846414600F0BF
:1003B000ECF9074688462A4633461046194600F0AF
:1003C000E4F905460E466410002CEAD1DDE900018F
:1003D000B9F1000F5A46534606DA00F0FCFB3A46E4
:1003E000434600F0F8FB05E000F0CFF93A464346FB
:1003F00000F0CBF9029A0AB181F00041039AC2E9F8
:100400000001B3E72DE9FF4F1F468DB0D7E9014644
:100410004FF0FF382E2045464FF000090B90B96988
:100420006D1C0E988847396A824688470028F6D1A5
:10043000BAF1FF3F0AD024F4D064002E11DDBAF1E6
:100440002B0F08D0BAF12D0F0BD102E0404611B0AE
:100450008DE744F48064B9696D1C0E988847824624
:10046000761E6946600501D52D2000E02B208DF811
:10047000000001F1010B0DF1200809E0B9696D1CC4
:100480000E98884782460F9844F40074761E0560E3
:10049000002E02DDBAF1300FF0D00B998A453ED123
:1004A00044F0800406E00F99681CA9F1010944F4A6
:1004B00000740860B9696D1C761E0E9888478246E4
:1004C0003028F0D02BE00B998A4505D1200603D4C3
:1004D00044F08004761E18E0504604F0D1FF08B3C3
:1004E0000DF11301761E44F400748B4508D2AAF175
:1004F00030000BF8010B200607D5A9F1010003E03D
:10050000200602D409F101008146A00502D50F9909
:10051000681C0860B9696D1C0E9888478246002ED9
:10052000D1DC53E0002E51DDBAF1650F02D0BAF1F3
:10053000450F4BD1A00549D5B9696D1C24F4407411
:10054000761E0E9888478246002E0CDD2B2804D09C
:10055000BAF12D0F07D144F48074B9696D1C0E985F
:1005600088478246761EE00501D52D2100E02B212B
:1005700008F8011BCDF82C8021E00DF12901761E31
:1005800044F4007488450CD2AAF1300010F0FF004A
:1005900088F8000002D10B99884509D908F10108B3
:1005A00006E0E00501D5244801E042F20F708146E3
:1005B000B9696D1C0E98884782460F980560002E19
:1005C00004DD504604F05CFF0028D6D1F9690E988E
:1005D0008847FF208BF8000088F800000020069074
:1005E00007904B466A4608A906A8FFF777FEA005C4
:1005F00002D46FF001002AE714F0240F0AD0E007BC
:1006000014D1DDE906123868031D3B600068C0E9BB
:1006100000120BE0DDE9060100F070FB0146E00787
:1006200004D13868021D3A600068016028460EE770
:10063000000014400000F03FF1D8FFFF2DE9FE4F0D
:10064000804681EA0300C00F0C46009021F0004173
:1006500023F00045B8EB0200A94105D240462146EF
:1006600090461C460B46024623F00040104347D0FC
:10067000270DC7F30A00C3F30A510290401A0190F4
:1006800040286BDAC3F3130040F4801B00989246B5
:1006900020B10023D2EB030A63EB0B0B0198594600
:1006A000C0F14002504600F096F906460D4650460D
:1006B0005946019A00F09EF910EB080061410024B0
:1006C00087EA115284EAE7731A4340D0009A62B372
:1006D000019A012A4FEA075215DC001B61EB020167
:1006E0004FF0004202EA0752CDE90042001C41F5FA
:1006F000801132462B4600F020FA03B0BDE8F08F9F
:1007000040462146F9E7001B61EB0201001C41F560
:10071000801300185B412018A2F5001747EB030176
:1007200040EAD570B6196D4111E06D084FEA360602
:1007300045EAC0754FEA0752001B61EB0201001C3D
:1007400041F5801149084FEA300000195141324605
:100750002B4603B0BDE8F04F00F0E0B9009801224D
:1007600040000023D0EB020263EBE07300982146C7
:100770004FEAE074B8EB000061EB0401E9E783F0B5
:1007800000435BE781F0004158E72DE9FE4F81EA25
:10079000030404F0004421F0004100944FF0000BEA
:1007A00023F0004350EA01045ED052EA03045BD018
:1007B000C3F30A54C1F30A552C44A4F2F334019450
:1007C000A0FB0254C1F3130141F48011C3F31303DE
:1007D00043F4801301FB024400FB034E840A970A92
:1007E00044EA815447EA8357A4FB076802958D0ABF
:1007F00005FB07854FEA932C04FB0C542705029D4B
:100800004FEA065847EA1637B5EB08056EEB070CBA
:10081000870E920E47EA811742EA8312A7FB020174
:10082000B6EB0B0164EB00042B0D43EA0C335E18AE
:1008300044EB1C50DA465146E7FB0201C5F31304B2
:100840004FEA0B3343EA14534FEA0432019C43EA64
:100850000603A4F10C040294009CCDE900B400F05E
:100860006CF903B0BDE8F08F00200146F9E70EB542
:10087000C10F80EAE0700844CA07002140F2334308
:100880008DE80E000A460B4600F057F903B000BD94
:100890000EB540F2334102910021CDE900110A4624
:1008A0000B4600F04AF903B000BD70B5C1F30A521F
:1008B00001F000450024C1F3130140F2FF3341F47D
:1008C00080119A4201DA002070BD40F233439A420F
:1008D000A2F2334203DC5242FFF772FC00E0904088
:1008E0002C43F1D0404270BD30B5041E71F10004BC
:1008F00004DB4FF00044404264EB0101141E73F12D
:10090000000405DB1C464FF00043524263EB040336
:100910008B4208BF824230BD30B5041E71F1000425
:1009200004DB4FF00044404264EB0101141E73F1FC
:10093000000405DB1C464FF00043524263EB040306
:10094000994208BF904230BD30B50B4601460020A9
:100950002022012409E021FA02F59D4205D303FA81
:1009600002F5491B04FA02F52844151EA2F1010202
:10097000F1DC30BD2DE9F05F0546002092469B4634
:1009800088460646814640241BE0284641464746A5
:100990002246FFF715FC53465A46C01A914110D320
:1009A00011461846224600F016F82D1A67EB01088A
:1009B0004F4622460120002100F00DF817EB0009F8
:1009C0004E41201EA4F10104DFDC484631462A4690
:1009D0004346BDE8F09F202A04DB203A00FA02F1EA
:1009E000002070479140C2F1200320FA03F319431D
:1009F00090407047202A06DBCB17203A41FA02F0DC
:100A000043EAE07306E041FA02F3D040C2F120026B
:100A100091400843194670470268114413780160F9
:100A200018467047D16004495161044911620021A0
:100A30001161114600F096B9190A0008590D000815
:100A4000426842B1016811F8013B23B1521EC0E96E
:100A50000012184670470121C160881E7047426825
:100A60005AB1C368016843B983688B4205D0491EF7
:100A7000521CC0E90012002070474FF0FF30704751
:100A80000FB4002300B589B00CA900910B996FF049
:100A90000042CB601E4B06931E4B07930423CDE907
:100AA00001321D4A089202466B460020FFF7AAFC5D
:100AB00009B05DF814FB70B586B006464FF0FF3004
:100AC0000091CDE90101002015460C460490324604
:100AD000694604A8FFF7D4FF02460498211825B1FF
:100AE00008B1084600E020462860049800280DD090
:100AF000002A02DD0098884208D0081B0094CDE946
:100B000001043246694604A8FFF7BAFF06B070BD7B
:100B1000410A00085F0A0008590D000810B5141EAC
:100B200073F1000408DA401C41F1000192185B41A6
:100B30001A4301D120F0010010BD2DE9F04D92467D
:100B40009B4611B1B1FA81F202E0B0FA80F2203294
:100B50009046FFF740FF04460F4640EA0A0041EA8C
:100B60000B0153465A46084313D0114653EA01007D
:100B700019D0C8F140025046FFF722FB05460E4649
:100B8000504659464246FFF726FF084305D001204C
:100B900004E020463946BDE8F08D0020054346EAD2
:100BA000E0762C4337430A986305E40AA0EB08007B
:100BB0000022FD0A44EA47540A3002D500200146CB
:100BC000E9E7010510196941DDE9084500196941A6
:100BD000BDE8F04DA2E72DE9F04D81EA030404F0F1
:100BE000004B21F0004514464FF0000A23F000416D
:100BF00050EA050220D054EA01021DD0C5F30A577D
:100C00000246C5F31303C1F31300C1F30A5640F4BF
:100C1000801543F48013A7EB0608101BD64608F294
:100C2000FD3873EB050002D308F1010801E09218CA
:100C30005B41B8F1000F03DA00200146BDE8F08DFA
:100C400000204FF48011064684460EE0171B73EB1C
:100C5000050705D3121B63EB050306434CEA010CA1
:100C600049084FEA300092185B4150EA0107EDD184
:100C700052EA030012D082EA040083EA0501084325
:100C800005D0101BAB4106D20122002306E0002252
:100C90004FF0004302E06FF0010253101AEB060020
:100CA0004CEB085110EB0A0041EB0B01BDE8F04D95
:100CB000FFF734BF0EB540F2334202920022CDE975
:100CC00000221346FFF739FF03B000BDC1F30A52FB
:100CD000C1F3130140F2FF3341F480119A4202DA6A
:100CE00000200146704740F233439A42A2F2334259
:100CF00002DC5242FFF764BAFFF76DBE01F0004319
:100D000030B421F0004150EA010206D00A0DA2F5EC
:100D10006072C1F31301002A02DC30BC002070476E
:100D2000440F44EAC104C100E01830BC00EBC250DB
:100D300000F0B0B9064C074D06E0E06840F0010352
:100D400094E8070098471034AC42F6D3FFF7D2F985
:100D5000349C0008549C0008C0B24FF4F05100F0DD
:100D6000D1B900002DE9F34F8BB04FF0000801F12D
:100D70000C000C464FF0010B46460DF1080A01909D
:100D80006269012101989047051E2DD0252D2CD098
:100D9000216A8847C0B16269012101989047216AA0
:100DA00088470028F7D1411E62690198904700E00A
:100DB000761CA1690B988847216A88470028F7D1DB
:100DC000E1690B988847DBE7A1690B9888470746DC
:100DD000A84201D1761CD3E7E1690B9888477F1CB4
:100DE00002D1B8F1000F6FD047E1002762693D469C
:100DF0003946019890472A2804D162690121019857
:100E000090470125DFF88892626901210198904797
:100E1000A0F130010A290AD24F45E5DC07EB870132
:100E200000EB4107303FDFD445F01005ECE7E90661
:100E300001D46FF000476C280AD04C2814D06828E1
:100E400015D06A280DD074281CD07A281AD01DE03D
:100E500062690121019890476C2802D045F0040591
:100E600014E045F002050DE045F020050AE0626956
:100E7000012101989047682802D045F0080505E057
:100E800045F400656269012101989047C4E9015762
:100E900065283DD019DC58287AD00CDC452837D09D
:100EA00004DC252826D0412831D131E046282FD036
:100EB00047282CD12CE05B2877D0612828D06328E4
:100EC0007CD0642823D15AE0D1E06F2848D008DCD8
:100ED00066281DD067281BD0692821D06E2816D11E
:100EE00027E0702845D0732868D0752847D0782827
:100EF0000DD14DE0A1690B988847054625283FF4A0
:100F000069AFE1690B9888476D1C3FF46AAFB4E0A4
:100F100023466A466FF001000B99FFF773FA9FE0D2
:100F200045F040006060A80723464FF0000236D429
:100F30003EE0E8077FF447AF2068011D21600068AC
:100F4000290501D506701BE7290701D5068017E79B
:100F5000A90703D5F117C0E9006111E706600FE7A3
:100F600045F040006060A80723464FF0080216D401
:100F70001EE040F60E0125EA0100606016E045F033
:100F800040006060A80723464FF00A0207D40FE034
:100F900045F040006060A80708D5234610226FF096
:100FA00001000B99AFF300805AE007E023461022BE
:100FB0006FF001000B99AFF3008051E04FF0000992
:100FC0004F464B46632802D05B2807D041E020798A
:100FD000C00601D40120A06001273AE06269012126
:100FE000019890475E2805D14FF001096269494692
:100FF00001989047216939B900210A46534643F8C0
:101000002120491C0829FADBB0B3216969B9C1174D
:1010100000EBD16253110AEB830122F01F02821A06
:1010200001200B68904003430B6062690121019825
:1010300090475D28E8D1B9F1000F09D00020514652
:1010400051F82020D24341F82020401C0828F7DB2B
:1010500002AB224600976FF001000B99AFF30080BE
:1010600000280CDA401C08D1BBF1000F05D04FF06E
:10107000FF300DB0BDE8F08FFFE74046F9E7E90724
:1010800001D108F1010806444FF0000B78E600009A
:10109000CCCCCC0C0029A8BF7047401C490008BF2D
:1010A00020F00100704710B4B0FA80FC00FA0CF098
:1010B00050EA010404BF10BC704749B1CCF12004D0
:1010C00021FA04F411FA0CF118BF0121214308435D
:1010D000A3EB0C01CB1D4FEA00614FEA102042BF89
:1010E000002010BC704700EBC35010440029A4BF7F
:1010F00010BC7047401C490008BF20F0010010BC24
:10110000704700007F2801D9002208E0064A02EB60
:101110005002C007127800D1120902F00F0201201C
:101120009040084070470000F49B000810B501F0A3
:10113000ABFE10BD7CB52F2157A0FFF7A8F828B152
:101140002F2155A0FFF7A3F8401C00E052A006464F
:101150005C21FFF79CF8002811D02F214EA0FFF74B
:1011600096F828B12F214CA0FFF791F8401C00E021
:1011700049A006465C21FFF78AF8401C0BE02F21AE
:1011800045A0FFF784F828B12F2143A0FFF77FF88F
:10119000401C00E040A005462222294646A004F05B
:1011A00007F84C480E2100238022CDE900104AA107
:1011B0004C4808F0B7F90446012C35D12F2136A050
:1011C000FFF765F828B12F2133A0FFF760F8401C26
:1011D00000E031A006465C21FFF759F888B12F21C5
:1011E0002DA0FFF754F828B12F212BA0FFF74FF8BF
:1011F000401C00E028A006465C21FFF748F8401C90
:101200000BE02F2124A0FFF742F828B12F2122A0C4
:10121000FFF73DF8401C00E01FA005462E2229469E
:1012200031A003F0C5FF34E02F211BA0FFF72FF8FA
:1012300028B12F2118A0FFF72AF8401C00E016A0C3
:1012400006465C21FFF723F888B12F2112A0FFF793
:101250001EF828B12F2110A0FFF719F8401C00E05C
:101260000DA006465C21FFF712F8401C0BE02F2171
:1012700009A0FFF70CF828B12F2107A0FFF707F806
:10128000401C00E004A00546322229461DA003F0C0
:101290008FFF07F0DFFE7CBD2E2E5C446576656C0B
:1012A0006F706D656E745C4170705C4170705F54FE
:1012B00061736B2E630000005B25733A25645DCD7E
:1012C000F8B9D8CFEEC4BFC6F4B6AF2E2E2E2E0A74
:1012D000000000001000002073746172745F74617C
:1012E000736B0000618700085B25733A25645DC657
:1012F000F4B6AFC8CECEF1B4B4BDA8B3C9B9A62E6A
:101300002E2E0A005B25733A25645DC6F4B6AFC87D
:10131000CECEF1B4B4BDA8CAA7B0DC2E2E2E0A00E2
:1013200010B502F0E1FA10BD00BFFEE710B50446AB
:10133000204600F0A7F810BD2DE9F04104460D4607
:10134000164643F23907207800233A46012107F078
:101350003DF92168884202D00020BDE8F081207864
:101360003246294604F0E2FE012801D00020F4E7CD
:101370000120F2E7704772B600BFFEE70146002287
:1013800091F82100022808D00420886300BF0020C3
:1013900081F8200000BF012070470868006820F035
:1013A0000E000B6818600868006820F001000B68E8
:1013B000186091F8403001209840CB6B58600120B4
:1013C00081F8210000BF002081F8200000BF1046F6
:1013D000E2E7000070B50446002594F821000228D9
:1013E00003D00420A063012548E02068006820F0B5
:1013F0000E00216808602068006820F00100216864
:1014000008601F492068884201D1012026E01C495C
:1014100014312068884201D110201FE0184928317A
:101420002068884201D1801518E015493C312068B8
:10143000884201D1801411E011495031206888425E
:1014400002D14FF4803009E00D49643120688842B0
:1014500002D14FF4801001E04FF080700849083944
:101460004860012084F8210000BF002084F820009B
:1014700000BF606B10B12046616B8847284670BD85
:101480000800024070B5044600F0A6F9064625465D
:10149000681C10B104480078054400BF00F09CF9B6
:1014A000801BA842FAD370BD080000202DE9F84740
:1014B0000346002294466EE14FF0010808FA02F458
:1014C000D1F8008008EA0400A0427DD1DFF8DCA258
:1014D000D1F80480A8EB0A09D0453AD014DCB8F161
:1014E000030F50D009DCB8F1000F31D0B8F1010F73
:1014F0001CD0B8F1020F49D120E0B8F1110F18D07B
:10150000B8F1120F42D11EE0B9F5881F25D006DCD4
:10151000B9F5803F20D0B9F5801F37D11AE0B9F571
:10152000001F18D0B9F5041F30D117E0D1F80CC056
:101530002DE0D1F80C8008F1040C28E0D1F80C80E3
:1015400008F1080C23E0D1F80C8008F10C0C1EE027
:1015500000BF00BF00BF00BF00BF00BFD1F80880C0
:10156000B8F1000F02D14FF0040C0BE0D1F8088065
:10157000B8F1010F03D14FF0080C1C6102E04FF0ED
:10158000080C5C6103E04FF0000C00E000BF00BFFE
:10159000FF2801D8984601E003F104084646FF28D9
:1015A00002D84FEA820803E0A2F108084FEA88084F
:1015B0004746D6F800804FF00F0909FA07F928EAE4
:1015C00009080CFA07F900E088E048EA0908C6F8BB
:1015D0000080D1F8048008F08058B8F1805F7DD198
:1015E00000BFDFF8CC81D8F8188048F00108DFF898
:1015F000C091C9F81880C846D8F8188008F00108CA
:10160000CDF8008000BF00BF4FEAB9384FEA920919
:1016100058F829504FEA82784FEA18794FF00F08AE
:1016200008FA09F825EA0805DFF88881434502D160
:101630004FF0000816E0DFF88081434502D14FF0FB
:1016400001080FE0DFF87481434502D14FF0020832
:1016500008E0DFF86C81434502D14FF0030801E058
:101660004FF004084FEA82794FEA197908FA09F82D
:1016700048EA0505DFF84C814FEA920948F82950FD
:10168000D1F8048008F48018B8F5801F0AD1DFF87B
:101690003881D8F8008048EA0008DFF82C91C9F8B2
:1016A000008009E0DFF82081D8F8008028EA0008EF
:1016B000DFF81491C9F80080D1F8048008F400180C
:1016C000B8F5001F10D1DFF8008108F10408D8F840
:1016D000008048EA0008DFF8F09000E05AE009F1E5
:1016E0000409C9F800800DE0DFF8DC8008F1040887
:1016F000D8F8008028EA0008DFF8CC9009F1040946
:10170000C9F80080D1F8048008F40038B8F5003F2B
:101710000ED1DFF8B480A8F10408D8F8008048EAB8
:101720000008DFF8A490A9F10409C9F800800DE0D1
:10173000DFF89480A8F10408D8F8008028EA0008AF
:10174000DFF88490A9F10409C9F80080D1F8048079
:1017500008F48038B8F5803F0ED1DFF86C80A8F12E
:101760000808D8F8008048EA0008DFF85C90A9F182
:101770000809C9F800800DE0DFF84C80A8F10808DE
:10178000D8F8008028EA0008DFF83C90A9F10809A1
:10179000C9F80080521CD1F8008028FA02F8B8F18C
:1017A000000F7FF489AEBDE8F8870000000011103B
:1017B0000010024000080140000C014000100140F0
:1017C0000014014008000140080401400AB1016111
:1017D00001E00B0403617047014800687047000096
:1017E00000000020034800680349097808440149C3
:1017F00008607047000000200800002010B508486D
:10180000006840F0100006490860032000F0A8F8C6
:101810000F2000F007F800F02BF8002010BD0000AA
:101820000020024070B504460E4800784FF47A71EB
:10183000B1FBF0F00C490968B1FBF0F5284600F067
:1018400061FF08B1012070BD102C07D20022214693
:10185000501E00F047F80548046001E00120F2E75F
:101860000020F0E7080000200C0000200400002009
:1018700008B500BF1148806940F001000F49886138
:101880000846806900F00100009000BF00BF00BF63
:101890000846C06940F08050C8610846C06900F041
:1018A0008050009000BF00BF00BF0549486820F08D
:1018B000E06040F00070486000BF08BD00100240CA
:1018C0000000014001460846002809DB00F01F0324
:1018D00001229A4043099B0003F1E023C3F8002151
:1018E00000BF70472DE9F05F80460D461646002781
:1018F00003F082FC074639462A46334601F00700CA
:10190000C0F1070ABAF1040F02D94FF0040A01E04E
:10191000C0F1070AD14600F1040ABAF1070F02D25A
:101920004FF0000A01E0A0F1030AD4464FF0010A8B
:101930000AFA09FAAAF1010A0AEA020A0AFA0CFAF0
:101940004FF0010B0BFA0CFBABF1010B0BEA030B95
:101950004AEA0B042146404603F056FCBDE8F09FDE
:1019600000BF00F00702064B19684FF6FF0319404D
:10197000044B0B4343EA0221014B196000BF70473F
:101980000CED00E00000FA0570B504460D460CB9F8
:10199000012070BD5A48006800F00700A8420ED22E
:1019A0005748006820F0070028435549086008465A
:1019B000006800F00700A84201D00120E9E7207884
:1019C00000F0020002281DD1207800F00400042855
:1019D00005D14C48406840F4E0604A4948602078AE
:1019E00000F00800082805D14648406840F46050DF
:1019F000444948604348406820F0F000A16808432B
:101A000040494860207800F0010078B36068012800
:101A100006D13C48006800F4003090B90120B8E7D6
:101A20006068022806D13748006800F0007040B9AD
:101A30000120AEE73348006800F0020008B9012039
:101A4000A7E73048406820F00300616808432D494B
:101A50004860FFF7C1FE064609E0FFF7BDFE801BA8
:101A600041F28831884202D9032092E707E02548F5
:101A7000406800F00C006168B0EB810FEDD12048A8
:101A8000006800F00700A8420ED91D48006820F049
:101A9000070028431A4908600846006800F007005C
:101AA000A84201D0012074E7207800F00400042847
:101AB00007D11448406820F4E060E1680843114908
:101AC0004860207800F00800082808D10D484068D8
:101AD00020F46050216940EAC1000A49486000F0E2
:101AE0003FF808494968C1F30311074A515CC840EF
:101AF0000649086006480068FFF794FE002048E7A2
:101B000000200240001002402A9900080C0000202A
:101B10000400002001480068704700000C0000200D
:101B200000B5FFF7F7FF04494968C1F30221034AF2
:101B3000515CC84000BD0000001002403A99000806
:101B400000B5FFF7E7FF04494968C1F3C221034A22
:101B5000515CC84000BD0000001002403A990008E6
:101B600070B500210022002400230020134D696875
:101B700001F00C05F5B1042D02D0082D19D101E0BA
:101B80000F4819E00F4DC1F38346AB5D01F480357A
:101B900055B10A4D6D68C5F340450B4E725D084D59
:101BA0005D43B5FBF2F402E0084D03FB05F420466B
:101BB00002E000BF024800BF00BF70BD001002403D
:101BC00000127A00189900082899000800093D00C1
:101BD000F8B504460CB90120F8BD207800F00100EA
:101BE000002878D0F848406800F00C0004280CD099
:101BF000F548406800F00C00082811D1F248406810
:101C000000F48030B0F5803F0AD1EF48006800F45E
:101C1000003000285FD0606800285CD10120DBE73D
:101C200000BF6068B0F5803F06D1E748006840F427
:101C30008030E549086028E0606858B9E2480068EB
:101C400020F48030E04908600846006820F48020D5
:101C500008601AE06068B0F5A02F0BD1DA48006880
:101C600040F48020D84908600846006840F480307D
:101C700008600AE0D448006820F48030D249086047
:101C80000846006820F48020086000BF606888B1C2
:101C9000FFF7A2FD054606E0FFF79EFD401B642806
:101CA00001D9032098E7C848006800F400300028F4
:101CB000F2D010E0FFF790FD054606E0FFF78CFD3F
:101CC000401B642801D9032086E7BF48006800F460
:101CD00000300028F2D1207800F00200022857D10D
:101CE000B948406800F00C0050B1B748406800F0B7
:101CF0000C00082818D1B448406800F4803098B926
:101D0000B148006800F0020020B12069012801D02C
:101D1000012061E7AC48006820F0F800616940EA02
:101D2000C100A949086033E02069E8B10120A74952
:101D30000860FFF751FD054606E0FFF74DFD401B2B
:101D4000022801D9032047E79F48006800F00200FD
:101D50000028F2D09C48006820F0F800616940EA51
:101D6000C1009949086013E0002098490860FFF716
:101D700033FD054606E0FFF72FFD401B022801D981
:101D8000032029E79048006800F002000028F2D103
:101D9000207800F0080008282DD1A069B8B10120F2
:101DA0008B490860FFF718FD054606E0FFF714FDB4
:101DB000401B022801D903200EE78348406A00F047
:101DC00002000028F2D0012002F0BCFD13E0002048
:101DD0007F490860FFF700FD054606E0FFF7FCFCC1
:101DE000401B022801D90320F6E67748406A00F03C
:101DF00002000028F2D1207800F00400042873D1FA
:101E000000277148C06900F0805070B900BF6E486B
:101E1000C06940F080506C49C8610846C06900F054
:101E20008050009000BF00BF01276A48006800F49E
:101E30008070B0B96748006840F4807065490860F8
:101E4000FFF7CAFC054606E0FFF7C6FC401B642806
:101E500001D90320C0E65F48006800F480700028C4
:101E6000F2D000BFE068012806D15748006A40F070
:101E700001005549086227E0E06858B95248006AF5
:101E800020F00100504908620846006A20F0040072
:101E9000086219E0E06805280BD14B48006A40F061
:101EA0000400494908620846006A40F001000862DF
:101EB0000AE04548006A20F00100434908620846EC
:101EC000006A20F00400086200BFE068A0B1FFF7DC
:101ED00083FC054609E0FFF77FFC401B41F2883197
:101EE000884202D9032077E622E03748006A00F0F2
:101EF00002000028EFD012E0FFF76EFC054608E074
:101F0000FFF76AFC401B41F28831884201D9032067
:101F100062E62D48006A00F002000028F0D1012F8F
:101F200005D12948C06920F080502749C86100BF09
:101F3000E069C8B32448406800F00C00082860D06D
:101F4000E069022848D1002020490866FFF744FCD8
:101F5000054606E0FFF740FC401B022801D903209C
:101F60003AE61948006800F000700028F2D1206AB3
:101F7000B0F5803F07D11448406820F40030A168D4
:101F8000084311494860D4E9080108430E494968EB
:101F900021F4741108430C49486001200B4908667C
:101FA000FFF71AFC054607E03DE0FFF715FC401B74
:101FB000022801D903200FE60348006800F00070F2
:101FC0000028F2D02FE00000001002400000424242
:101FD0008004424200700040002014490866FFF768
:101FE000FBFB054606E0FFF7F7FB401B022801D983
:101FF0000320F1E50E48006800F000700028F2D1DF
:1020000011E0E069012800D1E6E50948466806F4D8
:102010008031206A814204D106F47011606A8142E5
:1020200001D00120D8E50020D6E5000000004242A2
:102030000010024010B504460CB9012010BD606AC2
:1020400038B96068B0F5827F00D105E00021E16118
:1020500002E00021216161610021A16294F8510038
:1020600028B9002084F85000204600F043F80220F0
:1020700084F851002068006820F040002168086062
:10208000A08800F48270218901F404410843A189E9
:1020900001F400610843217C01F002010843217D25
:1020A00001F001010843218B01F400710843217FF5
:1020B00001F0380108432021095D01F08001084347
:1020C000218D01F400510843216808600421A069B2
:1020D00001EA1040216848602068C06920F400606F
:1020E0002168C86100206065012084F8510000204B
:1020F000A4E7000010B586B00446002002900390CB
:10210000049005901A49206888422FD100BF1948D1
:10211000C06940F480401749C8610846C06900F4AE
:102120008040019000BF00BF00BF0846806940F0BA
:10213000080088610846806900F00800019000BF2F
:1021400000BF4FF42040029002200390032005902E
:1021500002A90948FFF7AAF94FF480400290002035
:102160000390049002A90448FFF7A0F906B010BD3F
:102170000038004000100240000C01402DE9F843F7
:102180000446884616461D4694F85100012802D0A0
:102190000220BDE8F8836068B0F5827F0CD1A068AA
:1021A00050B9042084F85100334642464146204647
:1021B000009500F083F9ECE7FFF70EFB0746B8F156
:1021C000000F00D00EB90120E3E700BF94F85000E3
:1021D000012801D10220DCE7012084F8500000BF73
:1021E000042084F8510000206065C4F83880A68778
:1021F000E6872063A086E08620646064A068B0F56E
:10220000004F0BD12068006820F040002168086072
:102210002068006820F48040216808602068006819
:1022200000F04000402805D02068006840F04000E1
:1022300021680860E06830BB21E02068806800F019
:10224000010050B12068007BA16B0870A06B401C9E
:10225000A063E08F401EE08711E0FFF7BDFAC01BCE
:10226000A84201D3681C00B94DB9012084F851007F
:1022700000BF002084F8500000BF032089E7E08FF2
:102280000028DAD125E021E02068806800F0010014
:1022900050B12068C068A16B0880A06B801CA0634F
:1022A000E08F401EE08711E0FFF796FAC01BA842BE
:1022B00001D3681C00B94DB9012084F8510000BF5A
:1022C000002084F8500000BF032062E7E08F002860
:1022D000DAD13A462946204602F048FB08B12020D0
:1022E0006065012084F8510000BF002084F8500090
:1022F00000BF606D08B101204BE7002049E72DE9E0
:10230000F84304460F4616461D46FFF765FA804619
:10231000B14694F85100012802D00220BDE8F883AC
:1023200007B10EB90120F9E700BF94F85000012869
:1023300001D10220F2E7012084F8500000BF032001
:1023400084F85100002060652763A686E686A063B6
:10235000A087E08760642064A068B0F5004F0BD1CF
:102360002068006820F0400021680860206800684C
:1023700040F48040216808602068006800F0400058
:10238000402805D02068006840F0400021680860BF
:10239000E068B0F5006F37D1606810B1B9F1010F96
:1023A00009D1206B00882168C860206B801C2063E5
:1023B000E08E401EE08623E02068806800F0020086
:1023C00002280AD1206B00882168C860206B801C1D
:1023D0002063E08E401EE08612E0FFF7FDF9A0EBDF
:1023E0000800A84201D3681C00B94DB9012084F847
:1023F000510000BF002084F8500000BF03208DE78B
:10240000E08E0028D8D136E0606810B1B9F1010F34
:1024100009D1206B007821680873206B401C206371
:10242000E08E401EE08623E02068806800F0020015
:1024300002280AD1206B007821680873206B401CA9
:102440002063E08E401EE08612E0FFF7C5F9A0EBA6
:102450000800A84201D3681C00B94DB9012084F8D6
:10246000510000BF002084F8500000BF032055E752
:10247000E08E0028D8D142462946204602F0B2FA22
:1024800008B120206065A06850B900BF002000900E
:102490002068C068009020688068009000BF00BF7E
:1024A000012084F8510000BF002084F8500000BFD4
:1024B000606D08B1012031E700202FE72DE9FE4FC4
:1024C00004460F4690461D460C9E01200190FFF7E2
:1024D00083F9814694F851B060680290AA46BBF136
:1024E000010F0BD00298B0F5827F04D1A06810B91B
:1024F000BBF1040F02D00220BDE8FE8F1FB1B8F17E
:10250000000F00D00DB90120F6E700BF94F850008D
:10251000012801D10220EFE7012084F8500000BF1C
:1025200094F85100042802D0052084F851000020BE
:102530006065C4F83880E587A5872763E586A586AA
:10254000206460642068006800F04000402805D0E6
:102550002068006840F0400021680860E068B0F53D
:10256000006F52D1606810B1BAF1010F09D1206B30
:1025700000882168C860206B801C2063E08E401EAC
:10258000E0863BE02068806800F00200022810D15D
:10259000E08E70B1019801280BD1206B0088216872
:1025A000C860206B801C2063E08E401EE086002007
:1025B00001902068806800F0010068B1E08F58B198
:1025C0002068C068A16B0880A06B801CA063E08FAE
:1025D000401EE08701200190FFF7FEF8A0EB090004
:1025E000B0420BD3701C48B1012084F8510000BFE9
:1025F000002084F8500000BF03207DE7E08E002813
:10260000C0D1E08F0028BDD152E0606810B1BAF1AE
:10261000010F09D1206B007821680873206B401CE2
:102620002063E08E401EE0863CE02068806800F079
:102630000200022810D1E08E70B1019801280BD160
:10264000206B007821680873206B401C2063E08EAB
:10265000401EE086002001902068806800F00100A4
:1026600068B1E08F58B12068C068A16B0870A06B9A
:10267000401CA063E08F401EE08701200190FFF71F
:10268000ABF8A0EB0900B04201D3701C00B94EB901
:10269000012084F8510000BF002084F8500000BFE2
:1026A000032029E7E08E0028BFD1E08F0028BCD1AD
:1026B0004A463146204602F095F940B12020606537
:1026C00000BF002084F8500000BF012014E7A0687C
:1026D00050B900BF002000902068C06800902068BA
:1026E0008068009000BF00BF012084F8510000BF47
:1026F000002084F8500000BF606D08B10120FBE6A7
:102700000020F9E670B504462546681EB0F1807FCA
:1027100001D301200FE0681E4FF0E02148610F2136
:102720004FF0FF3002F070FD00204FF0E021886193
:1027300007200861002070BDF8B504460E46174614
:1027400094F8420020282ED106B10FB90120F8BD1F
:1027500001202063002060633A463146204602F0A3
:1027600089FB0546EDB9206B012819D100BF002077
:10277000009020680068009020684068009000BFCA
:1027800000BF00BF00BF21680C3151E8001F41F0BD
:10279000100021680C3141E80002002AF3D100E06A
:1027A00001252846D3E70220D1E700002DE9F041BA
:1027B00007460C462F2122A0FDF769FD28B12F21E5
:1027C0001FA0FDF764FD401C00E01DA006465C2133
:1027D000FDF75DFD002811D02F2119A0FDF757FD51
:1027E00028B12F2116A0FDF752FD401C00E014A0D7
:1027F00006465C21FDF74BFD401C0BE02F2110A08D
:10280000FDF745FD28B12F210DA0FDF740FD401C2F
:1028100000E00BA005469822294611A002F0C8FC52
:1028200015480480002211461448006806F06AFB2F
:102830004FF4807212491348FFF77EFFBDE8F08124
:102840002E2E5C446576656C6F706D656E745C41B0
:1028500070705C4170705F5461736B2E6300000098
:102860005B25733A25645D0ABDD3CAD5B5BDCAFDE3
:10287000BEDD2E2E2E2E0A001C0000201800002087
:10288000E8010020A0010020704700002DE9F84F6A
:102890000446206805682068C668206847694FF0CC
:1028A0000009CA4605F00F09B9F1000F0AD105F079
:1028B000200038B106F0200020B1204602F0DEF9F9
:1028C000BDE8F88FB9F1000F7BD007F0010018B90F
:1028D00006F49070002874D005F0010030B106F4C1
:1028E000807018B1606C40F00100606405F0040075
:1028F00030B107F0010018B1606C40F00200606474
:1029000005F0020030B107F0010018B1606C40F032
:102910000400606405F0080048B106F0200010B91A
:1029200007F0010018B1606C40F008006064606C52
:10293000002845D005F0200028B106F0200010B195
:10294000204602F09BF920684069C0F3801A606C51
:1029500000F0080010B9BAF1000F2CD0204602F0A8
:1029600047F92068406900F0400000B300BF00BF95
:102970002168143151E8001F21F040002168143112
:1029800041E80002002AF3D100BFE06B50B1774864
:10299000E16B4863E06BFEF71DFD88B1E06B416BB6
:1029A00088470DE02046FFF76FFF09E009E0204669
:1029B000FFF76AFF04E02046FFF766FF002060642F
:1029C0007EE7206B012877D105F01000002873D036
:1029D00006F010000028FAD000BF00200090206808
:1029E0000068009020684068009000BF00BF206829
:1029F000406900F0400000285FD0E06B006840684C
:102A00001FFA80F8B8F1000F55D0A08D404552DD77
:102A1000A4F82E80E06B8069202843D000BF00BF5F
:102A200021680C3151E8001F21F4807021680C31BD
:102A300041E80002002AF3D100BF00BF00BF2168B7
:102A4000143151E8001F21F001002168143141E8E0
:102A50000002002AF3D100BF00BF00BF216814317B
:102A600051E8001F21F040002168143141E80002C4
:102A7000002AF3D100BF202084F842000020206308
:102A800000BF00BF21680C3151E8001F21F0100089
:102A900021680C3141E80002002AF3D100BFE06B4D
:102AA000FEF76CFC02206063A08DE28D801A81B27B
:102AB0002046FFF77BFE03E742E0A08DE18D401A40
:102AC0001FFA80F8E08DD0B3B8F1000F37D000BF07
:102AD00000BF21680C3151E8001F21F4907021687B
:102AE0000C3141E80002002AF3D100BF00BF00BF53
:102AF0002168143151E8001F21F0010021681431D0
:102B000041E80002002AF3D100BF202084F84200EF
:102B10000020206300BF00BF21680C3151E8001F76
:102B200021F0100021680C3141E80002002AF3D1A5
:102B300000BF0220606341462046FFF737FEBFE634
:102B400005F0800030B106F0800018B1204602F098
:102B5000B1F9B5E605F0400030B106F0400018B11B
:102B6000204602F07BF8ABE600BFA9E6DD4B00088B
:102B700010B504460CB9012010BDA06900B100E0F9
:102B800000BF94F8410028B9002084F84000204696
:102B900000F02AF8242084F841002068C06820F45E
:102BA00000502168C860204602F0E6F820680069FD
:102BB00020F49040216808612068406920F02A00D4
:102BC000216848612068C06840F400502168C860EE
:102BD00000206064202084F8410084F84200002036
:102BE000606300BFC8E7000010B586B0044600204F
:102BF00002900390049005903749206888422FD1B5
:102C000000BF3648806940F48040344988610846F6
:102C1000806900F48040019000BF00BF00BF0846FB
:102C2000806940F0040088610846806900F0040073
:102C3000019000BF00BF48150290022003900320BE
:102C4000059002A92648FEF731FC4FF480600290FF
:102C500000200390049002A92148FEF727FC39E0E8
:102C600020492068884235D100BF1C48C06940F423
:102C700000301A49C8610846C06900F4003001906C
:102C800000BF00BF00BF0846806940F004008861B3
:102C90000846806900F00400019000BF00BF0420D6
:102CA0000290022003900320059002A90C48FEF731
:102CB000FDFB0820029000200390049002A9084820
:102CC000FEF7F4FB002211462620FEF70BFE26201D
:102CD000FEF7F8FD06B010BD0038014000100240BC
:102CE000000801400044004070472DE9F84F0446B9
:102CF0000E46174699464FF0000A94F841002028E6
:102D000050D106B117B90120BDE8F88F00206064EA
:102D1000212084F84100FEF75FFD8246A784E78406
:102D2000A068B0F5805F04D1206910B90025B046D5
:102D300002E035464FF000081EE053460022802195
:102D40002046CDF8009002F0E5F820B1202084F86C
:102D500041000320D8E745B9B8F80000C0F30800E7
:102D60002168486008F1020803E02878216848607B
:102D70006D1CE08C401EE084E08C0028DDD15346C1
:102D8000002240212046CDF8009002F0C3F820B187
:102D9000202084F841000320B6E7202084F8410079
:102DA0000020B1E70220AFE7704700BFFEE7000058
:102DB00070B54FF4427002F0FDF80446172C37D07E
:102DC0002F211CA0FDF763FA28B12F2119A0FDF7D0
:102DD0005EFA401C00E017A006465C21FDF757FA9A
:102DE000002811D02F2113A0FDF751FA28B12F216F
:102DF00010A0FDF74CFA401C00E00EA006465C2136
:102E0000FDF745FA401C0BE02F210AA0FDF73FFA21
:102E100028B12F2107A0FDF73AFA401C00E005A0D9
:102E20000546C32229460BA002F0C2F900F05CFD62
:102E300070BD00002E2E5C446576656C6F706D650C
:102E40006E745C496E745C496E745F573535303012
:102E50002E6300005B25733A25645D4D5154542068
:102E6000B7FECEF1C6F7B6CFBFAAC1ACBDD32E2EEA
:102E70002E2CD5FDD4DAD6D8D0C2C1ACBDD32E2EDF
:102E80002E2E2E2E0A00000010B5FFF791FF3221E2
:102E9000014801F05EFC10BDF80200207FB5044639
:102EA0000E46154600208DF80000029603956A46EE
:102EB0002146024801F032F97FBD0000F8020020EF
:102EC0007CB505460C468DF8005001208DF80100B8
:102ED000200A8DF80200E0B28DF8030000208DF882
:102EE000040001208DF805000621684605F050FE1B
:102EF0000646F0B28DF80600300A8DF8070008216A
:102F0000684600F027FC7CBD7CB505460C468DF874
:102F1000005002208DF80100200A8DF80200E0B276
:102F20008DF8030000208DF8040001208DF80500C5
:102F30000621684605F02CFE0646F0B28DF8060024
:102F4000300A8DF807000821684600F003FC7CBDBC
:102F50007CB505460C468DF8005004208DF8010024
:102F6000200A8DF80200E0B28DF8030000208DF8F1
:102F7000040001208DF805000621684605F008FED2
:102F80000646F0B28DF80600300A8DF807000821D9
:102F9000684600F0DFFB7CBD2DE9F04F9DB0044694
:102FA0000D46A81E81B2204605F0F2FD8246A81EFD
:102FB000215C681E205C41EA002BDA4538D02F21C5
:102FC000FAA0FDF764F928B12F21F8A0FDF75FF909
:102FD000401C00E0F5A080465C21FDF758F9002870
:102FE00011D02F21F1A0FDF752F928B12F21EFA028
:102FF000FDF74DF9401C00E0ECA080465C21FDF798
:1030000046F9401C0BE02F21E8A0FDF740F928B15C
:103010002F21E6A0FDF73BF9401C00E0E3A00746A6
:103020009B223946E9A002F0C3F81DB0BDE8F08F3D
:1030300094F800902F21DDA0FDF729F928B12F2168
:10304000DAA0FDF724F9401C00E0D8A080465C21FE
:10305000FDF71DF988B12F21D4A0FDF718F928B18B
:103060002F21D2A0FDF713F9401C00E0CFA080462D
:103070005C21FDF70CF9401C0BE02F21CBA0FDF7E4
:1030800006F928B12F21C9A0FDF701F9401C00E085
:10309000C6A007464B46A1223946D5A002F088F8C3
:1030A0008DF868906078072880F0CA82DFE810F019
:1030B000C80207001201C802C8003F027E00E07883
:1030C000002839D12F21B9A0FDF7E1F828B12F212F
:1030D000B6A0FDF7DCF8401C00E0B4A080465C21FF
:1030E000FDF7D5F888B12F21B0A0FDF7D0F828B1B1
:1030F0002F21AEA0FDF7CBF8401C00E0ABA080462E
:103100005C21FDF7C4F8401C0BE02F21A7A0FDF7C0
:10311000BEF828B12F21A5A0FDF7B9F8401C00E0AA
:10312000A2A00746AB223946B8A002F041F8BDA0E4
:103130001C90C2A01B9038E02F219CA0FDF7A7F89F
:1031400028B12F2199A0FDF7A2F8401C00E097A01C
:1031500080465C21FDF79BF888B12F2193A0FDF7F5
:1031600096F828B12F2191A0FDF791F8401C00E0BE
:103170008EA080465C21FDF78AF8401C0BE02F21D1
:103180008AA0FDF784F828B12F2188A0FDF77FF8E9
:10319000401C00E085A00746B1223946A9A002F0F4
:1031A00007F8AEA01C90B2A01B9049E22F217FA08F
:1031B000FDF76DF828B12F217CA0FDF768F8401CC1
:1031C00000E07AA080465C21FDF761F888B12F21EC
:1031D00076A0FDF75CF828B12F2174A0FDF757F811
:1031E000401C00E071A080465C21FDF750F8401CB7
:1031F0000BE02F216DA0FDF74AF828B12F216BA01D
:10320000FDF745F8401C00E068A007466079217989
:1032100040EA0120A0F5FA73B922394695A001F0E1
:10322000C7FF6079217940EA0120A0F5FA7298A1E0
:1032300001A801F0CDFF01A81C909BA01B90FFE10D
:103240002F215AA0FDF723F828B12F2157A0FDF711
:103250001EF8401C00E055A080465C21FDF717F8E1
:1032600088B12F2151A0FDF712F828B12F214FA0CE
:10327000FDF70DF8401C00E04CA080465C21FDF7F6
:1032800006F8401C0BE02F2148A0FDF700F828B1FC
:103290002F2146A0FCF7FBFF401C00E043A007469F
:1032A0002079E17840EA0120A0F5FA73C12239467D
:1032B0007EA001F07DFF2079E17840EA0120A0F5B1
:1032C000FA7274A101A801F083FF01A81C907EA0EE
:1032D0001B90B5E1E078002839D12F2133A0FCF70D
:1032E000D6FF28B12F2131A0FCF7D1FF401C00E010
:1032F0002EA080465C21FCF7CAFF88B12F212BA0AD
:10330000FCF7C5FF28B12F2128A0FCF7C0FF401C07
:1033100000E026A080465C21FCF7B9FF401C0BE0D2
:103320002F2122A0FCF7B3FF28B12F211FA0FCF70B
:10333000AEFF401C00E01DA00746CB22394664A02A
:1033400001F036FF69A01C9070A01B90EEE02F21C9
:1033500016A0FCF79CFF28B12F2114A0FCF797FFC3
:10336000401C00E011A080465C21FCF790FF88B172
:103370002F210EA0FCF78BFF28B12F210BA0FCF70B
:1033800086FF401C00E009A080465C21FCF77FFF1F
:10339000401CC1E02F2105A0FCF779FF28B12F21A7
:1033A00002A0FCF774FF401CB6E0B3E02E2E5C4494
:1033B0006576656C6F706D656E745C496E745C49A2
:1033C0006E745F4D6F646275732E63005B25733A94
:1033D00025645D4D6F6462757320CFECD3A6CAFD82
:1033E000BEDDD0A3D1E9CAA7B0DC2121210A0000AB
:1033F0005B25733A25645D6D6F646275735F696404
:10340000203D20253032580A000000005B25733A29
:1034100025645DB5E7BBFACAC7CDA3D6B9D7B4CC8E
:10342000AC0A00006D6F746F722069732053544FA3
:1034300050207374617475730000000053544F5032
:10344000000000005B25733A25645DB5E7BBFACA4E
:10345000C7D4CBD0D0D7B4CCAC0A00006D6F746F9A
:10346000722069732052554E207374617475730015
:1034700052554E005B25733A25645DC9E8D6C3B545
:10348000C4B5E7BBFAD7AACBD9CEAA3A25640A00BD
:10349000736574206D6F746F72207370656564203E
:1034A0006973202564000000534554005B25733A7E
:1034B00025645DB5E7BBFAB5C4CAB5BCCAD7AACB0B
:1034C000D9CEAA3A25640A005245414400000000C2
:1034D0005B25733A25645DB5E7BBFACAC7C4E6CA83
:1034E000B1D5EBD0FDD7AA0A000000006D6F746F54
:1034F0007220697320616E7469636C6F636B7769A6
:10350000736520726F746174696F6E00414E544927
:1035100000000000AFF26C100746D222394660A0CE
:1035200001F046FE65A01C906BA01B9088E02079FE
:10353000002842D12F21AFF28C10FCF7A8FE30B149
:103540002F21AFF29810FCF7A2FE401C01E0AFF271
:10355000A41080465C21FCF79AFEA0B12F21AFF2A7
:10356000B410FCF794FE30B12F21AFF2C010FCF77D
:103570008EFE401C01E0AFF2CC1080465C21FCF7CF
:1035800086FE401C0EE02F21AFF2E010FCF77FFE1C
:1035900030B12F21AFF2EC10FCF779FE401C01E0B6
:1035A000AFF2F8100746DC2239464DA001F000FECC
:1035B00050A01C9052A01B9041E02F21AFF214208C
:1035C000FCF765FE30B12F21AFF22020FCF75FFE43
:1035D000401C01E0AFF22C2080465C21FCF757FE36
:1035E000A0B12F21AFF23C20FCF751FE30B12F21CA
:1035F000AFF24820FCF74BFE401C01E0AFF2542034
:1036000080465C21FCF743FE401C0EE02F21AFF208
:103610006420FCF73CFE30B12F21AFF27020FCF7A4
:1036200036FE401C01E0AFF27C200746E22239461C
:1036300035A001F0BDFD39A01C903BA01B9000BF40
:1036400000BF02F0A7FB00909DF86800FDF720F98D
:1036500007463A460B4636A1009802F031FB37A1E7
:103660001B9A009802F04AFB36A11C9A009802F0BF
:1036700045FB009802F084FC064676B13046FCF724
:10368000D9FD87B23A46314630A0FFF707FC3046F5
:1036900001F0CEFD009802F0A3FB00BFC5E40000DE
:1036A0005B25733A25645DB5E7BBFACAC7CBB3CADD
:1036B000B1D5EBD0FDD7AA0A000000006D6F746F82
:1036C0007220697320636C6F636B77697365207216
:1036D0006F746174696F6E00434C4F434B00000080
:1036E0005B25733A25645DB9D8B1D5B5E7BBFA0A55
:1036F00000000000636C6F7365206D6F746F720063
:10370000434C4F53450000005B25733A25645DB47C
:10371000F2BFAAB5E7BBFA0A000000006F70656E41
:10372000206D6F746F7200004F50454E0000000016
:103730006D6F646275735F69640000007374617417
:10374000757300006D6561737572650031313232D9
:10375000333300002DE9F04104460D4627A001F067
:1037600027FD2F2126A0FCF792FD28B12F2124A0B0
:10377000FCF78DFD401C00E021A007465C21FCF712
:1037800086FD002811D02F211DA0FCF780FD28B157
:103790002F211BA0FCF77BFD401C00E018A0074672
:1037A0005C21FCF774FD401C0BE02F2114A0FCF7FA
:1037B0006EFD28B12F2112A0FCF769FD401C00E02E
:1037C0000FA006460722314615A001F0F1FC0026A5
:1037D00005E0A15D18A001F0EBFC701C86B2AE42C2
:1037E000F7DB4FF47A732A4621461548FFF77DFA36
:1037F0004FF47A70FDF746FEBDE8F0810A00000044
:103800002E2E5C446576656C6F706D656E745C49D8
:103810006E745C496E745F4D6F646275732E6300E5
:103820005B25733A25645DB7A2CBCDCAFDBEDD2E04
:103830002E2E2E0A0000000030782530325820004D
:10384000A00100202DE9FC4107460C4616468DF8E4
:10385000007005208DF80100200A8DF80200E0B20A
:103860008DF803000EB9002000E0FF208DF8040061
:1038700000208DF805000621684605F089F9054607
:10388000E8B28DF80600280A8DF80700082168467E
:10389000FFF760FFBDE8FC812DE9FC4106460C46C0
:1038A00015468DF8006006208DF80100200A8DF87D
:1038B0000200E0B28DF80300280A8DF80400E8B297
:1038C0008DF805000621684605F062F90746F8B252
:1038D0008DF80600380A8DF8070008216846FFF7C2
:1038E00039FFBDE8FC810000F0B599B000224FF42B
:1038F0008071BC48FDF76AFF0A20FDF717FD012221
:103900001102B848FDF762FF0A20FDF70FFD02F033
:10391000D5FD0422B4494FF4706001F005FC062285
:10392000B149091D4FF4106001F0FEFB0422AE49BD
:103930000A314FF4A06001F0F7FB0422AA490E31CE
:10394000900101F0F1FB2F21A8A0FCF7A0FC28B109
:103950002F21A6A0FCF79BFC401C00E0A3A007467B
:103960005C21FCF794FC002811D02F219FA0FCF7CC
:103970008EFC28B12F219DA0FCF789FC401C00E0A3
:103980009AA007465C21FCF782FC401C0BE02F212B
:1039900096A0FCF77CFC28B12F2194A0FCF777FCC3
:1039A000401C00E091A006468322314697A001F01A
:1039B000FFFB4FF4FA60FDF765FD00219B4800F026
:1039C000B3FF40F25B729A499848FDF7B5FC044694
:1039D000012C36D02F2185A0FCF759FC28B12F21CE
:1039E00082A0FCF754FC401C00E080A007465C214C
:1039F000FCF74DFC88B12F217CA0FCF748FC28B1D6
:103A00002F217AA0FCF743FC401C00E077A007467A
:103A10005C21FCF73CFC401C0BE02F2173A0FCF761
:103A200036FC28B12F2171A0FCF731FC401C00E0CE
:103A30006EA00646922231467EA001F0B9FB19B075
:103A4000F0BD2F2169A0FCF722FC28B12F2167A02F
:103A5000FCF71DFC401C00E064A007465C21FCF75D
:103A600016FC88B12F2161A0FCF711FC28B12F2191
:103A70005EA0FCF70CFC401C00E05CA007465C214B
:103A8000FCF705FC401C0BE02F2158A0FCF7FFFBC6
:103A900028B12F2155A0FCF7FAFB401C00E053A0F1
:103AA0000646952231466DA001F082FB4FF48060FE
:103AB0007449CDE90001744B41F288325B490290B0
:103AC000724800F015F95822714903A8FCF78EFBE3
:103AD00001208DF826006FA006903C20ADF8240050
:103AE00004208DF814000020169013908DF8270004
:103AF00003A9664800F026F90546002D35D02F2190
:103B00003AA0FCF7C4FB28B12F2138A0FCF7BFFB7B
:103B1000401C00E035A007465C21FCF7B8FB88B1EB
:103B20002F2132A0FCF7B3FB28B12F212FA0FCF7E7
:103B3000AEFB401C00E02DA007465C21FCF7A7FB74
:103B4000401C0BE02F2129A0FCF7A1FB28B12F215D
:103B500026A0FCF79CFB401C00E024A00646A922FE
:103B600031464EA001F024FB69E72F211FA0FCF78E
:103B70008EFB28B12F211DA0FCF789FB401C00E023
:103B80001AA007465C21FCF782FB88B12F2117A001
:103B9000FCF77DFB28B12F2114A0FCF778FB401C1B
:103BA00000E012A007465C21FCF771FB401C0BE013
:103BB0002F210EA0FCF76BFB28B12F210BA0FCF7E7
:103BC00066FB401C00E009A00646AC2231463CA042
:103BD00001F0EEFA434B002243A12C4800F045FDD2
:103BE00000BF2CE7000C0140380000202E2E5C4462
:103BF0006576656C6F706D656E745C496E745C495A
:103C00006E745F57353530302E6300005B25733A94
:103C100025645D573535303020B3F5CABCBBAFCD18
:103C2000EAB3C92E2E2E2E2E2E0A0000E802002006
:103C3000340000205B25733A25645DB4B4BDA82030
:103C400054435020C1ACBDD3B7FECEF1C6F7CAA7CE
:103C5000B0DC2E2E2E2E2E2E0A0000005B25733A8D
:103C600025645DB4B4BDA82054435020C1ACBDD37D
:103C7000B7FECEF1C6F7B3C9B9A62E2E2E2E2E2E24
:103C80000A0000005407002054030020F80200201E
:103C90004499000868756968756900005B25733A86
:103CA00025645DB4B4BDA8204D51545420C1ACBDB1
:103CB000D3CAA7B0DC2E2E2E2E2E2E0A0000000016
:103CC0005B25733A25645DB4B4BDA8204D515454AE
:103CD00020C1ACBDD3B3C9B9A62E2E2E2E2E2E0ACE
:103CE000000000000D6A0008616162626363000009
:103CF0002DE9F05F04460E4617469846DDE90BAB0A
:103D0000DDF828902665002505E0002104F1240057
:103D100040F835106D1C052DF7DB6760C4F8108086
:103D2000C4F80890C4F814A0C4F80CB000202062B5
:103D30002077E0640120206004F1540000F032FF9D
:103D4000BDE8F09FF0B59BB004460D464FF0FF363E
:103D50005822254903A8FCF749FA0027206A00B138
:103D60003BE019A800F01EFF19A8616800F012FFDF
:103D700005B903AD288BA06104F15400A16900F0DE
:103D8000FDFE2A46A168206900F07AFA071E00DCD1
:103D900023E019AA3946204604F0CAFB061E00D0CB
:103DA0001BE019AA0221204605F065FA022811D16C
:103DB000FF2002900020019002A901A8E368626937
:103DC00000F04AF8012802D19DF8086001E04FF0A8
:103DD000FF3601E04FF0FF3600BF0EB90120206230
:103DE00030461BB0F0BD00009C9900082DE9FE4F45
:103DF00004460D4616461F46DDF830A0002002900E
:103E000001978046814601A804F052F98DF8080018
:103E10000298C0F3C00028700298C0F3031020700D
:103E20006946019800F01CF9814601990844019007
:103E3000DDE9001000EB01080198A8EB0000022862
:103E400000DA06E001A804F03AF930804FF00109E9
:103E500000BF4846BDE8FE8F2DE9FF4704460D46EA
:103E6000164699460020039002960027804600904F
:103E700002A804F01DF98DF80C000398C0F303109C
:103E8000022800D01FE001A9029800F0E9F880465E
:103E9000029908440290DDE9011047180298381A87
:103EA000022800DA0FE002A804F002F98DF8000001
:103EB0000098C0F3C010207002A804F0F9F8287030
:103EC0004FF0010800BF404604B0BDE8F0872DE97F
:103ED000FF5F06460C4617469846DDE90FABDDF856
:103EE0003890002003901198029000250020019046
:103EF000009002A804F0DCF88DF80C000398C0F3E1
:103F00000310032800D032E00398C0F3C0003070E3
:103F10000398C0F341002060039800F0010038705E
:103F20006946029800F09CF80190029908440290BA
:103F30000099029845182A4602A9484604F0CCF890
:103F400010B10298281A00D511E02068002804DD7D
:103F500002A804F0B4F8A8F800000298281ACBF8D8
:103F600000000298CAF800000120019000BF0198EB
:103F700004B0BDE8F09F2DE9FE4F05460E461446FD
:103F80001F46DDE90C9B00200290CDF8049080468E
:103F9000824601A804F08CF88DF808000298C0F35E
:103FA0000310092800D02CE06946019800F058F869
:103FB0008246019908440190DDE9001000EB0108F8
:103FC0000198A8EB0000022800DA1AE001A804F02A
:103FD00076F82880002020600DE02068B04202DDE5
:103FE0004FF0FF3A0DE001A804F062F82268511C7E
:103FF000216047F8220001984045EED34FF0010AB6
:1040000000BF5046BDE8FE8F2DE9F84305460C463B
:10401000012600270020206000BF4FF0FF38781CE9
:104020000746042801DD00BF17E001216846A847C4
:104030008046B8F1010F00D00FE09DF8001001F0AC
:104040007F01206801FB06002060F6019DF800005A
:1040500000F080000028E0D100BF3846BDE8F883BA
:1040600070B504460D460348046029460248FFF730
:10407000CBFF70BD90000020515C000830B50246B7
:10408000002300BF0846CD1701EB5565ED11A1EBEC
:10409000C515ECB2CD1701EB5565E911002901DD1D
:1040A00044F0800418465B1C14540029EADC1846CE
:1040B00030BD2DE9F04104460E460027B846206881
:1040C00028B125682068FCF7B5F8074601E0A56827
:1040D00067683046FCF7AEF88046474508D13A4657
:1040E00031462846FCF7C4F810B90120BDE8F0813C
:1040F0000020FBE7401C802801DA401C0AE0B0F5F4
:10410000804F01DA801C05E00349884201DAC01CB7
:1041100000E0001D70470000FFFF1F002DE9F04187
:104120008CB005460E4614464FF0FF38002007902D
:104130000890099007960027286A00B963E00AA84A
:1041400000F030FD0AA8696800F024FD20780128FD
:1041500002D02078022803D1284602F091FAA080EC
:10416000D4E90201CDE9050107A807C802AB07C3DE
:10417000A0886178CDE9001023780022A968286919
:1041800000F076F90746002F00DC3CE00AAA394629
:10419000284604F0CDF9B0F1000800D033E02078D3
:1041A000012816D10AAA0421284605F064F804283B
:1041B0000CD1E868009006AA05A904A86B69FFF76E
:1041C00015FE012801D04FF0FF381BE04FF0FF38FB
:1041D00018E02078022815D10AAA0721284605F000
:1041E0004AF807280CD1E868009006AA05A904A897
:1041F0006B69FFF7FBFD012801D04FF0FF3801E0AC
:104200004FF0FF3800BF40460CB0BDE8F0812DE90B
:10421000FC4704460E4615461F46DDF82880002060
:10422000019081460094042E02DA6FF0010924E027
:10423000019865F307100190019867F3C30001909E
:10424000062D01D1012100E00021019861F3420017
:1042500001909DF80410684605F0F2F802210098DC
:10426000FFF70CFF0099084400904146684605F0AE
:10427000EDF80098A0EB040900BF4846BDE8FC87B4
:104280002DE9FE4305460E46144602950020019096
:10429000009000274FF0FF38204600F0A5F80746B1
:1042A0008146FFF727FFB04202DD6FF001088FE083
:1042B00000208DF80400019820F0F00010300190EB
:1042C0009DF8041002A805F0BBF839460298FFF7E4
:1042D000D5FE029908440290207A042808D13EA114
:1042E00002A805F099F8042102A805F0A9F807E052
:1042F0003BA102A805F090F8032102A805F0A0F860
:1043000000208DF80000A17E009861F3410000902C
:10431000E07E08B1012100E00021009861F38200F5
:1043200000900098C0F3800058B194F83D100098B8
:1043300061F3C400009094F83C10009861F34510BC
:104340000090206C08B9A06C20B1009820F080008B
:1043500080300090E06C08B9606D20B1009820F0CA
:104360004000403000909DF8001002A805F068F869
:10437000218B02A805F06AF802A8D4E90423E168B9
:1043800005F07CF8E07E58B102A8D4E90A23616AFE
:1043900005F074F802A8D4E90D23216B05F06EF83E
:1043A0000098C0F3C01028B102A8D4E91123216CF1
:1043B00005F064F80098C0F3801028B102A8D4E991
:1043C0001423E16C05F05AF80298A0EB050800BF31
:1043D0004046BDE8FE8300004D51545400000000EB
:1043E0004D5149736470000070B504460025207A71
:1043F000032801D10C2503E0207A042800D10A25E6
:10440000D4E90412E06800F0B8F9801C0544E07EAD
:1044100068B1D4E90A12606A00F0AFF9861CD4E9E9
:104420000D12206B00F0A9F93044801C0544206C6B
:1044300008B9A06C30B1D4E91112206C00F09DF9DC
:10444000801C0544E06C08B9606D30B1D4E91412E9
:10445000E06C00F092F9801C0544284670BD70B5F0
:1044600004460D460C222946204600F0D8F870BDBF
:104470002DE9F04F87B005460F4690461C46DDE912
:1044800015B6DDE9109A069500200590049003907A
:104490000096204612A90EC900F042F8049002903E
:1044A000FFF728FEB84203DD6FF00100039033E010
:1044B000059820F0F00030300590059868F3C300AF
:1044C0000590059864F342000590059869F3000093
:1044D00005909DF8141006A804F0B2FF0499069800
:1044E000FFF7CCFD06990844069006A812A90EC94C
:1044F00004F0C4FF002C03DD514606A804F0A6FF1B
:10450000324659460698FBF771FE069830440690ED
:104510000698401B039000BF039807B0BDE8F08FDA
:104520007FB50546089E002401A807C800F025F9BC
:10453000801C30440444002D00DDA41C204604B03F
:1045400070BD2DE9FF5F05460E4617469846DDE92A
:104550000E9A03950020029001900090002451468D
:10456000484600F045F883460190FFF7C3FDB0428E
:1045700002DDA01E009037E000208DF808000298B0
:1045800020F0F00080300290029867F3C3000290A0
:10459000029820F00600801C02909DF8081003A8E5
:1045A00004F04EFF01990398FFF768FD0399084452
:1045B0000390414603A804F049FF00240EE004EBF9
:1045C00044000AEB800C03A89CE80E0004F056FFA0
:1045D0001098015D03A804F033FF641C4C45EEDB2A
:1045E0000398401B009000BF009804B0BDE8F09F06
:1045F0002DE9F04105460E46022700240AE004EBAF
:10460000440006EB800393E8070000F0B6F8C01CF6
:104610000744641CAC42F2DB3846BDE8F0812DE96A
:10462000FC4104460D46164600200190471E0094AA
:10463000022D01DA871E15E000208DF80400019894
:1046400066F3071001909DF80410684604F0F8FE28
:1046500000210098FFF712FD00990844009000988F
:10466000071B00BF3846BDE8FC812DE9F0478CB040
:1046700004460D4616461F464FF0FF384FF000091E
:10468000002007900890099007950696206A00B9C7
:104690005BE00AA800F086FA0AA8616800F07AFADE
:1046A000204601F0EDFF1FFA80FA06A807A90122B3
:1046B000CDE90021029053460022A1682069FFF74E
:1046C00040FF8146B9F1000F00DC3EE00AAA4946EE
:1046D000204603F02DFFB0F1000800D035E00AAA13
:1046E0000921204604F0C7FD09282BD100200590A0
:1046F000401E0490E168606904AB05AACDE90001A1
:10470000012103A8FFF737FC012801D1DDF8108053
:10471000B8F1800F15D000200FE004F1240151F80A
:10472000301049B904F1240141F8305001EBC001C7
:104730004F604FF0000802E0401C0528EDDB00BF91
:1047400000BF01E04FF0FF3800BF40460CB0BDE8AD
:10475000F0877CB504460D460026684600F022FA34
:104760002946684600F016FA6946204601F08CFD9D
:10477000401C00B9761E30467CBD37B50024009839
:1047800020B10098FBF756FD044600E0019C20464E
:104790003EBD000000B585B000200190029003905E
:1047A000049000BF2C48806940F010002A498861BD
:1047B0000846806900F01000009000BF00BF00BFF5
:1047C0000846806940F0200088610846806900F052
:1047D0002000009000BF00BF00BF0846806940F085
:1047E000040088610846806900F00400009000BF62
:1047F00000BF00BF0846806940F008008861084695
:10480000806900F00800009000BF00BF01228915F8
:104810001248FCF7DBFF012211021148FCF7D6FF1A
:104820004FF480700190012002900020039002203C
:10483000049001A90948FCF739FE4FF480700190FB
:1048400001200290002003900220049001A9044856
:10485000FCF72CFE05B000BD00100240000801402E
:10486000000C014010B50E480E4908604FF48270EC
:10487000486000210B488160C160016141614FF4D3
:10488000007181610021C1610162416281620A217E
:10489000C162FDF7CFFB08B1FCF76DFD10BD000054
:1048A000003800400001002010B50B480B4908609B
:1048B0004FF4E1304860002108488160C160016127
:1048C0000C21416100218161C161FEF751F908B1FC
:1048D000FCF751FD10BD00000038014058010020D8
:1048E00010B50B480B4908604FF4E13048600021D7
:1048F00008488160C16001610C2141610021816132
:10490000C161FEF735F908B1FCF735FD10BD0000B7
:1049100000440040A001002000BFFEE700BFFEE70A
:1049200041600260704700000160034A4260034A30
:104930008260034AC26070470592000843920008F3
:10494000F991000808B508490968C9084FF47A7256
:10495000B1FBF2F14143009100BF00BF00994A1E34
:1049600000920029F9D108BD0C000020F8B50446DA
:104970000E4615466068B0F5827F0DD1A068B0F58F
:10498000004F03D0A068B0F5806F05D120680068A3
:1049900020F04000216808606068B0F5827F11D186
:1049A000A068B0F5806F0DD133460022012120466A
:1049B000009500F039F898B1606D40F02000606516
:1049C0000320F8BD3346002280212046009500F0E8
:1049D0002BF828B1606D40F0200060650320F0E7FF
:1049E0000020EEE7F8B504460E4615463346012290
:1049F00002212046009500F017F828B1606D40F0C4
:104A0000200060650320F8BD334600228021204647
:104A1000009500F009F828B1606D40F02000606555
:104A20000320F0E70020EEE72DE9F84F04460D469D
:104A300090461E46DDF82890FCF7CEFEA0EB09005C
:104A4000371AFCF7C9FE82462C480068C0F3CB3009
:104A50007843009045E0701C002842D0FCF7BCFE73
:104A6000A0EB0A00B84200D2A7BB2068406820F043
:104A7000E000216848606068B0F5827F0DD1A068D1
:104A8000B0F5004F03D0A068B0F5806F05D1206865
:104A9000006820F0400021680860A06AB0F5005F5F
:104AA0000DD100BF2068006820F400502168086024
:104AB0002068006840F400502168086000BF0120B1
:104AC00084F8510000BF002084F8500000BF03208C
:104AD000BDE8F88FFFE7009800B900270098401E56
:104AE0000090206880682840A84201D1012000E0A1
:104AF00000204045AFD10020EAE700000C00002074
:104B000010B5FCF76FFE04F07BFD012801D004F026
:104B1000EFFC10BD00B58FB0282105A8FBF77FFB87
:104B200014216846FBF77BFB0120059000040690EA
:104B3000002007900120099002200C90C1030D91E4
:104B40004FF4E0110E9105A8FDF742F808B1FCF70B
:104B500012FC0F20009002200190002002904FF4E0
:104B6000806003900020049002216846FCF70CFF4F
:104B700008B1FCF700FC0FB000BD704701EB41022B
:104B8000C2EBC112024B1B6803EBC20242607047CA
:104B90008C000020024A12680A44426070470000FC
:104BA0008C00002000214160704700000146034B4B
:104BB00048681B68C21AD00F704700008C000020A4
:104BC0000146054B48681B68C21A002A01DA00201A
:104BD00070471046FCE700008C00002070B50546C9
:104BE0006C6A0020E085E0842046FDF74DFE70BD34
:104BF00000BF00BF02680C3252E8002F22F490710F
:104C000002680C3242E80013002BF3D100BF00BF52
:104C100000BF0268143252E8002F22F0010102683E
:104C2000143242E80013002BF3D100BF016B0129BD
:104C30000ED100BF00BF02680C3252E8002F22F0F4
:104C4000100102680C3242E80013002BF3D100BFC0
:104C5000202180F8421000210163704710B50446FE
:104C60002068C06820F040002168C860202084F8D7
:104C700041002046FEF798F8002010BDF8B5044624
:104C800094F84200222875D1A068B0F5805F0CD15D
:104C9000206950B90025A66A20684068C0F3080062
:104CA0003080A06A801CA06215E0A56A0026A0687A
:104CB000B0F5805F03D0A06828B9206918B92068D2
:104CC0004068287004E02068406800F07F00287089
:104CD000A06A401CA062E08D401E80B2E0850028E2
:104CE00046D12068C06820F020002168C860206894
:104CF000C06820F480702168C8602068406920F096
:104D0000010021684861202084F84200002060638F
:104D1000206B012826D10020206300BF00BF21683E
:104D20000C3151E8001F21F0100021680C3141E8DE
:104D30000002002AF3D100BF2068006800F01000D4
:104D400010280AD100BF0020009020680068009061
:104D500020684068009000BF00BFA18D2046FDF78D
:104D600025FD02E02046FDF7BFFF0020F8BD01E071
:104D70000020FBE70220F9E770B5044621680969C5
:104D800021F44051E2681143226811612269A1684F
:104D90001143626941EA02052168C96841F20C6267
:104DA000914329432268D1602168496921F4407107
:104DB000A2691143226851612D4A2168914202D1B2
:104DC000FCF7BEFE01E0FCF7ABFE00EBC00101EB1F
:104DD000001162689200B1FBF2F100EBC00202EB3D
:104DE000001263689B00B2FBF3F26423B2FBF3F2A0
:104DF00002EBC20303EB0212A1EB8201322202EBAF
:104E000001116422B1FBF2F101F0F00100EBC002EC
:104E100002EB001263689B00B2FBF3F26423B2FB67
:104E2000F3F201EB021200EBC00101EB0011636829
:104E30009B00B1FBF3F100EBC00303EB00136668CA
:104E4000B600B3FBF6F36426B3FBF6F303EBC3063D
:104E500006EB0313A1EB8301322303EB011164235F
:104E6000B1FBF3F101F00F0111442268916070BDB4
:104E70000038014010B5034699629A85DA85002012
:104E80005864222083F84200186928B11868C06865
:104E900040F480701C68E0601868406940F00100D0
:104EA0001C6860611868C06840F020001C68E06001
:104EB000002010BD014691F84100212828D18868C2
:104EC000B0F5805F0BD1086948B90A6A1088C0F351
:104ED00008000B685860086A801C086205E00B6ACD
:104EE000581C086218780B685860C88C401E80B245
:104EF000C88458B90868C06820F080000B68D86082
:104F00000868C06840F040000B68D8600020704717
:104F10000220FCE72DE9F84304460D461746984663
:104F2000089E31E0701C70B3FCF756FCA0EB080043
:104F3000B04200D816B90320BDE8F8832068C068E5
:104F400000F00400F8B1802D1ED0402D1CD0206848
:104F50000068C0F3C000B0B100BF0020009020681E
:104F60000068009020684068009000BF00BF2046A5
:104F7000FFF73EFE0820606400BF002084F8400078
:104F800000BF0120D8E7FFE7206800682840A8425A
:104F900001D1012000E00020B842C3D00020CBE7BF
:104FA00010B50248FDF772FC10BD0000A001002002
:104FB00000BFFEE738B504461A49C868804719495A
:104FC0004869804700BF1748406A10B11548806A99
:104FD00070B91448016AC4F3074088471148016A50
:104FE000C4F307208847E0B20E4A116A88470DE0F3
:104FF000200C8DF80000200A8DF80100E0B28DF839
:10500000020008480321826A684690470549C8693A
:1050100080470546034988698047024908698047F7
:10502000284638BD58000020F8B504460E461746FD
:105030001F49C86880471E494869804700BF1C480F
:10504000406A10B11A48806AC0B91948016AC4F3AD
:10505000074088471648016AC4F307208847E0B232
:10506000134A116A8847002505E01149C86980473D
:105070007055681C85B2BD42F7DB12E0200C8DF83C
:105080000000200A8DF80100E0B28DF80200084807
:105090000321826A6846904705483946426A30468D
:1050A0009047034988698047014908698047F8BDEE
:1050B0005800002038B504460D461A49C868804794
:1050C00018494869804744F004041648806A90B93A
:1050D0001448016AC4F3074088471248016AC4F3C0
:1050E00007208847E0B20F4A116A88470D48016AD5
:1050F000284688470FE0200C8DF80000200A8DF824
:105100000100E0B28DF802008DF80350054804213B
:10511000826A68469047034988698047014908695F
:10512000804738BD58000020F8B504460E461746A3
:105130001E49C86880471D494869804744F00404F7
:105140001A48806AC0B91948016AC4F30740884701
:105150001648016AC4F307208847E0B2134A116A6F
:105160008847002505E0705D104A116A8847681C71
:1051700085B2BD42F7DB12E0200C8DF80000200A5A
:105180008DF80100E0B28DF8020008480321826A20
:105190006846904705483946826A30469047034939
:1051A00088698047014908698047F8BD5800002098
:1051B0000FB4054B10B503A9044A029800F068F932
:1051C00010BC5DF814FB000065660008F4000020C8
:1051D0000FB4084B10B504A902AA039800F058F9BF
:1051E000044602A9002000F0D6FC204610BC5DF861
:1051F00014FB0000975B000802480068C0F302201F
:10520000704700000CED00E010B5002804DB0A0731
:10521000130E054A135406E00A07140E034A00F061
:105220000F031B1FD45410BD00E400E018ED00E094
:1052300030B528B1144C031F002021680A4605E050
:10524000084630BD9A4203D810465268002AF9D168
:10525000002800D041680BD00468A3EB0005A542EC
:1052600004D11B681C440346046002E0436000E074
:1052700023603AB11C68D51AA54203D115682C44A5
:105280001C6052685A6030BDF80000202DE9F047DC
:1052900082460F4C10480D4E0E4F001B4FF0000879
:1052A00020F007054FF0010900221146504601F099
:1052B0008BFA002802D1306810B10020BDE8F087D9
:1052C0003C60C4E90058C6F80090EDE7FC000020FF
:1052D0004C3E0020F80000204844002002E008C8AE
:1052E000121F08C1002AFAD170477047002001E060
:1052F00001C1121F002AFBD1704700002DE9FF5F9A
:1053000082B00021DDE90430020DDDF840B0034336
:1053100018D044F61050A2F2FF32424315141198EF
:1053200001281FD0A5EB0B00401C5FEA000A4FF0DC
:1053300000064E4FDFF83891B046504615D5CAF1F9
:10534000000413E0119801244AA3012801D16FEA57
:105350000B010298119AC0E90031C0E9024206B07F
:10536000BDE8F09FCBF10000DFE704460021404A92
:10537000491842EB0450CDE9001012E0E00707D0D5
:1053800032463B4640464946FBF7FFF98046894690
:1053900032463B4610461946FBF7F7F906460F46DC
:1053A0006410002CEAD1DDE90401DDE90023BAF143
:1053B000000F06DAFBF7E9F942464B46FBF7E5F941
:1053C00005E0FBF708FC42464B46FBF704FC0446AD
:1053D0000E460022284BFBF79FFA03D84FF0FF3010
:1053E000014607E00022254B20463146FBF726F90F
:1053F000FBF76CFC102409E0002C0ADB0A220023D6
:10540000FBF7B8FA039B30321A55641E50EA0102CA
:10541000F2D1641C039AC4F111031444119A012AB5
:1054200003D0012208430DD10AE0084304D0002034
:105430004FF0110B119072E7A3EB0B056D1E0DE001
:105440005B4504DD4FF0000205F1010504E003DADD
:105450004FF00002A5F10105002AECD00298119945
:10546000C0E90231C0E9004579E7000000001440BE
:105470000000F03F300000000000F0430000E03F7B
:1054800030380A2801D20120704700207047000000
:105490002DE9FF4F95B09A46884606460025EEE175
:1054A000252877D100242746F94A0121039400E0FA
:1054B000044316F8013F203B01FA03F01042F7D1F4
:1054C00030782A2811D06FF02F033078A0F1300205
:1054D000092A16D8039A44F0020402EB820203EB75
:1054E00042021044761C0390EFE758F8042B039215
:1054F000002A03DA504244F40054039044F00204BA
:10550000761C30782E2816D116F8010F44F00404CA
:105510002A280DD06FF02F023078A0F13003092B2C
:1055200009D807EB870302EB4303C718761CF3E7A0
:1055300058F8047B761C30786C280FD006DC4C2899
:1055400017D068280DD06A2814D104E0742810D030
:105550007A280FD10DE044F400140AE044F48014DA
:1055600001E044F440147278824202D104F58014C0
:10557000761C761C307866280BD013DC582877D040
:1055800009DC002875D04528F6D04628F4D04728F5
:105590001AD193E118E0632835D0642879D06528C2
:1055A00012D18BE1702873D008DC6728F1D069280C
:1055B0006FD06E280DD06F2806D1ACE073282CD0A8
:1055C000752874D0782853D05246179990476D1C8F
:1055D00054E1C4F30250022809D003280DD0D8F8B2
:1055E000001004280DD00D6008F1040846E1D8F839
:1055F0000010EA17C1E90052F6E7D8F800100D8054
:10560000F2E70D70F0E718F8041B8DF80010002089
:105610008DF80100EB46012003E058F804BB4FF081
:10562000FF3061074FF0000102D40DE009F10101E4
:105630008946B9420FDA8145F8DB1BF809100029C9
:10564000F4D108E009F1010189468142FADB1BF837
:1056500009100029F6D103985346A0EB090721460B
:105660003846179A00F080FA284400EB090507E055
:1056700044E008E10DE01BF8010B524617999047F2
:10568000B9F10109F7D2534621463846179AF2E09C
:1056900039E00A21C4F302524FF0000B0091022AB4
:1056A00006D058F8040BC117032A09D00AE023E0FA
:1056B00008F1070020F00702F2E80201904605E039
:1056C00000B2C117042A01D140B2C117002906DA7D
:1056D0000A460021404261EB02012D2202E0220530
:1056E00004D52B228DF80420012203E0E20701D02B
:1056F0002022F7E7914657E00A2100E010214FF001
:10570000000B00910BE010214FF0000B44F004045B
:105710000827009103E008204FF0000B0090C4F32D
:105720000252022A05D058F8040B0021032A08D09F
:1057300008E008F1070020F00702F2E802019046B5
:1057400003E080B2042A00D1C0B24FF00009220762
:105750002AD53278702A07D0DDF800C08CF0100C02
:105760005CEA0B0C05D00EE040228DF804200122EB
:1057700008E050EA010306D030238DF804308DF89C
:10578000052002229146009B83F0080353EA0B0395
:105790000AD150EA010201D1620705D530228DF805
:1057A00004204FF001097F1E3278582A04D039A214
:1057B0000C920CAA02920BE03BA2F9E75B46009A1E
:1057C000FBF7D8F80C9B9B5C029A521E0292137056
:1057D00050EA0102F2D1029804A9081A00F1200B44
:1057E000600702D524F4803400E001275F4502DD24
:1057F000A7EB0B0000E0002000EB0B0100900398EA
:105800004944401A0390E00306D453462146179AB0
:10581000039800F0A9F90544002706E001A85246C4
:10582000C05D179990476D1C7F1C4F45F6DBE00368
:105830000CD553462146179A039800F095F9054474
:1058400004E030205246179990476D1C0099481E7D
:1058500000900029F5DC08E0029802995246007891
:10586000491C0291179990476D1CBBF10001ABF1E7
:10587000010BF1DC5BE100F065F90544761C307842
:1058800000287FF40DAE19B02846BDE8F08F000067
:105890000928010030313233343536373839616206
:1058A00063646566000000003031323334353637CA
:1058B000383941424344454600000000600700D4A7
:1058C000062708F1070020F00700F0E802238046D1
:1058D00003F0004C5FEA0C0001D097A009E020051E
:1058E00001D596A005E0E00701D095A001E0AFF258
:1058F0004C001390307823F0004365280CD006DC70
:10590000452809D046281DD047287FD13BE066288E
:1059100018D067287AD136E00021112F01DB112041
:1059200000E0781CCDE9000104A90CA8FFF7E6FC13
:10593000DDE90D010C9A4FF0000B07F101091092FF
:1059400000914EE04FF000400097CDE9011004A90E
:105950000CA8FFF7D3FCDDE90D020C9B0F994FF06B
:10596000000B91461093009211B9791C00EB0109CC
:10597000B7EB090003D4C0F1FF3B07F10109A9EB24
:105980000700019042E0012F00DA01270021112FCA
:1059900001DD112000E03846CDE9000104A90CA882
:1059A000FFF7ACFCDDE90D010C9A00914FF0000B04
:1059B000B946109221070FD4009A4A4503DA91465E
:1059C00001E0A9F10109B9F1010F05DD109AA9F172
:1059D0000101515C3029F4D0B84202DA10F1040F11
:1059E00003DA0121CDE9011010E0002803DC834433
:1059F000A9EB000102E0411C494500DD8946A0EB0E
:105A00000B00401C01904FF000400290200705D48D
:105A10000198484502DB4FF0FF30019000208DF8DF
:105A20004B0002980DF14B07B0F1004F25D002203A
:105A30000C902B200D90029800280CDA4042029026
:105A40002D200D9007E00A210298FAF77DFF3031F2
:105A5000029007F8011D0C99481E0C900029F2DCF9
:105A600002980028EFD1791E0D980870307800F068
:105A7000200040F0450007F8020D11A8C01BC01D12
:105A800002901398007800B1012000EB0901019801
:105A900001EBE071029801440398401A401E039004
:105AA000E00306D453462146179A039800F05CF8A9
:105AB00005441398007818B15246179990476D1C09
:105AC000E00323D553462146179A039800F04CF87B
:105AD00005441BE0BBF1000F07DB0098584504DDCF
